:100000000C949E010C9400000C9400000C940000D1
:100010000C9400000C9400000C9400000C94000060
:100020000C9400000C9400000C9400000C94000050
:100030000C9400000C94CB010C9400000C94000074
:100040000C9400000C9400000C9400000C94000030
:100050000C94000005072060000000000000005F15
:1000600000000007000700147F147F14242A7F2A51
:10007000122313086462364955225000050300001C
:10008000001C2241000041221C00082A1C2A0808EA
:10009000083E080800503000000808080808003032
:1000A00030000020100804023E5149453E00427FC6
:1000B000400042615149462141454B311814127F9D
:1000C0001027454545393C4A494930017109050326
:1000D0003649494936064949291E0036360000008E
:1000E000563600000008142241141414141441223E
:1000F0001408000201510906324979413E7E11116E
:10010000117E7F494949363E414141227F4141228A
:100110001C7F494949417F090901013E4141513252
:100120007F0808087F00417F41002040413F017F58
:10013000081422417F404040407F0204027F7F0438
:1001400008107F3E4141413E7F090909063E415169
:10015000215E7F09192946464949493101017F013C
:10016000013F4040403F1F2040201F7F2018207F3C
:100170006314081463030478040361514945430080
:10018000007F4141020408102041417F0000040229
:100190000102044040404040000102040020545449
:1001A00054787F48444438384444442038444448D0
:1001B0007F3854545418087E090102081454543CE2
:1001C0007F0804047800447D40002040443D000046
:1001D0007F10284400417F40007C041804787C088C
:1001E00004047838444444387C1414140808141463
:1001F000187C7C080404084854545420043F4440AC
:10020000203C4040207C1C2040201C3C4030403C96
:1002100044281028440C5050503C4464544C440032
:100220000836410000007F0000004136080002014E
:100230000204027F4141417F000103070F1F3F7FFE
:10024000FF000000000057454C434F4D452100542E
:10025000454D5052415455524520204E4F573A007B
:10026000504C4F5400494E464F002D2D3E252D3504
:100270002E32663C2D2D007A5A2530352E326620DE
:1002800043587800424B004156455241474520545F
:10029000454D505241545552453A004D4158205415
:1002A000454D505241545552453A004D494E205407
:1002B000454D505241545552453A00252D352E3268
:1002C00066002D4E414E000001002D4E414E00496A
:1002D0004E4600000400040042020900600146028C
:1002E000110069014F0205007A01600205007F01DB
:1002F0006502030084018402110087014F0205009A
:100300009801600205009D0165021400A2018702A8
:100310001000B6019B021000C601AB020300D6011B
:1003200084021100D9014F020500EA0160020500B4
:10033000EF01650201001C02C8020000F894EE27DC
:10034000ECBBF1E0FBBFEBBFE5BF8DE0A2E0BB275C
:10035000ED938A95E9F780E094E0A0E6ED930197AC
:10036000E9F7E4EDF2E085919591009761F0A591B0
:10037000B59105901590BF01F00105900D92019780
:10038000E1F7FB01F0CFEFE5EDBFE4E0EEBFC0E643
:10039000D1E00C940B02EA93FA93EFB7EA9377203B
:1003A00061F07A94E42D4394F0E0EF5EFD4FE0813C
:1003B000ECB9E8E0E41509F44424E991EFBFF991C0
:1003C000E9911895AA93E8E0E715E9F3F894772006
:1003D00011F45D990DC0E52D5394F0E0EF5EFD4FF3
:1003E000A881A083E8E0E51509F45524739402C0C0
:1003F000E881ECB978940C945704AA93E881E7B9A2
:100400008BE18A95F1F7369A349BFECF349AE4B1AA
:10041000F5B10C945704A497E0E0E8A3E9A3EAA39C
:10042000EBA300E010E0EABBEBBBE7BBE8BBE4BB3F
:10043000E5BBE1BBECE1E2BBE0E0E3BFE2BFECBF68
:10044000EFBDEEBDEDBDECBDE7BDE6BDEBBDEABD6C
:10045000E9BDE8BDE2BDE5BDE4BDE3BDE9BFE5BF83
:10046000E4BFEBB9E8E4EAB9E6E8E0BDE0E0E0BD0E
:10047000E3E3E9B9E0E8E8B9E0E0E7B9E6E8E6B9DE
:10048000E0E0E0BFEDB9E6BFE4E5F0E0E883F98342
:10049000E0E0EA83EB83EC83ED83DE011DD2789408
:1004A0000E94D004E8E2EA93E4E1EA93A0E6B1E036
:1004B0000E945F0800E010E00A30E0E01E07ACF4A4
:1004C000AAE0B0E00E940514AAE00A02F001DF01F0
:1004D000E65FEA93E8E2EA93FD01EC5EEA93A2E3C9
:1004E0000E945A0C0F5F1F4FE7CF0E947D11A9E6B3
:1004F000B1E00E948E11AAE7B1E00E949C11AFE723
:10050000B1E00E945F08A4E6B0E00E940514A0E0FC
:1005100074DF662777270E947B14E8A3F9A36AA3F8
:100520007BA30E94AA11EE5FFF4FFF93EF93E8A118
:10053000F9A16AA17BA10E94AF11AF91BF910E9466
:1005400042140E9491160E94AA1131960E948916A7
:100550000E94AA11E138A0E0FA0734F0A0E0B0E070
:10056000E0E0F0E00E948916FE013696FA93EA93E5
:10057000EAE6F2E00E94BE110E94C511E1E2EA93B0
:10058000EFE0EA93DE0118960E945F08829903C0AB
:10059000829BFECF38D0849903C0849BFECF81D04C
:1005A000FE017696FA93EA93E7E7F2E00E94BE1125
:1005B0000E94C51100E010E00A30E0E01E074CF494
:1005C000DE015696A00FB11FAC91FCDE0F5F1F4FEE
:1005D000F3CF829903C0829BFECF15D0849903C0CC
:1005E000849BFECF5ED0ADE7B0E00E9405148299F7
:1005F00003C0829BFECF07D0849903C0849BFECFAB
:1006000050D085CFFFCF0E94CC11E0E0EA93EA936F
:10061000E0E8EA93E0E4EA93A0E00E94BD0901E08B
:1006200010E00E94AA110E171F07BCF4E02FE15042
:10063000EA93F8013197EE5FFF4FDF010E947D16CC
:10064000A0E4AE1BAA930A930E94D211A0E4AE1BB1
:100650000E949C080F5F1F4FE4CFEAE0EA93EFE0AF
:10066000EA93AAE00E94100CE5E0EA93EDE0EA9339
:10067000A4E8B1E00E945F088399FECF839BFECF80
:100680000E947D11A7E8B1E00E948E11A8E9B1E0B7
:100690000E949C11ADE9B1E00E945F080991199197
:1006A00008956897E0E0EC8BED8BEE8BEF8B0E946A
:1006B000CC11EAE0EA93E5E0EA93A2EAB1E00E9415
:1006C0005F08EAE0EA93E9E1EA93A6EBB1E00E9471
:1006D0005F08EAE0EA93EDE2EA93A6ECB1E00E945B
:1006E0005F0800E010E00E94AA110E171F0764F4D3
:1006F0000E94D211F0E00E94D9110E94B5140E940C
:10070000E2110F5F1F4FEFCF0E94AA110E94D91173
:100710000E9453150E94E2110E94E711E4E1EA935E
:10072000EFE00E94F4110E94AA110E171F0774F443
:100730000E94D2110E94061211F008F004C00E941B
:10074000D2110E9412120F5F1F4FEDCF0E94E711CE
:10075000E4E1EA93E3E20E94F4110E94AA110E1769
:100760001F0764F40E94D2110E94061220F00E941A
:10077000D2110E9412120F5F1F4FEFCF0E94E7119C
:10078000E4E1EA93E7E3EA93DE0114960E945F084E
:10079000EEE6EA93E2E3EA93AAE00E94100CE9E6AF
:1007A000EA93E0E3EA93A6EDB1E00E945F08839943
:1007B000FECF839BFECF0E947D11A9EDB1E00E9488
:1007C0008E11AAEEB1E00E949C11AFEEB1E00E9442
:1007D0005F08198108816A9608950000A89A0000B0
:1007E0000895A898AC98AD9808951A93F6DF16B3BB
:1007F000A898E12F19910895AA931A93E0E0E7BB16
:10080000A99AAA98E981EF5F1E2F10FF02C0AC9A47
:1008100001C0AC9811FF02C0AD9A01C0AD98E5DFF0
:10082000E078E9F7188186C4AA93A981E5DF0E94E0
:10083000181280C4E0911A02EA93E0911902EF7352
:10084000E064AE2FF1DFE0911A02EA93E0911B021F
:10085000E86BAE2FE9DF0895AA93E981E0931902CE
:10086000E295EF70E695E695E0931A02E881E09351
:100870001B02E0DF5FC4A0911902AF5FA0931902D1
:10088000A03818F0E0E0E0931902E0911902EF734C
:1008900031F4E0911902EA93A0911B02DDDF089583
:1008A000AA93A0911A02A8DFAA9A0E941812219670
:1008B0000895A0911A02A0DFE0E0E7BBA99AAA9AE6
:1008C00094DF0895AA93E981EA93E9810E942112B5
:1008D000F0DFB0DFEEDF2EC4BA93AA931A93A09A8A
:1008E000A19AA29AA39AAB9AA49AA59A7ADFAB98F6
:1008F000A4E6B0E00E940514AB9A10E0123040F478
:100900001A93AFE391DF1A931395A0EC8DDFF6CF26
:10091000E1E0E093F401E0E0E093F501E981FA81A0
:100920003097A9F0A981BA810E944916E093F80195
:10093000F093F90112960E944916E0930D02F0938C
:100940000E02A981BA8114960E9449160AC0E0E0FD
:10095000F0E0E093F801F093F901E0930D02F093D9
:100960000E02E0930F02F0931002E1E0E093FA012F
:10097000E093FB01E093FC01EFEFE093FD01E1E088
:10098000E0930402E5E0F2E0FA93EA93EFEFEA93F2
:10099000A8E0B0E00E948E1003D0E1E01881BDC352
:1009A0000E94AC1600E030E0E091F501E03009F083
:1009B0000FEF383078F4E0E0EA93A32F3F5F4CDF8D
:1009C00010E0A12F1F5FA03820F4A02F0E94271253
:1009D000F8CFEFCFE0E0EA93A0E03EDFE0E0EA937B
:1009E000A0E09DD30E94B31624960895AA931A936B
:1009F0000A93AC81A03818F4AB81A03418F01981A7
:100A0000088170C3EC81EA93AC815CDF1E2F12DF9A
:100A1000EB81E770A1E00E94C8150E2FEA81E0305B
:100A200011F0102B03C0E02FE0951E23A12F38DF1B
:100A30001981088157C3AA93A981A03818F4A88105
:100A4000A03410F0E0E076C3E981EA93A9813ADFAF
:100A50001E2EE881E770A1E00E94C815E12111F087
:100A6000E1E001C0E0E066C3AA931A93ED81EA9346
:100A7000AD8128DF1E2FDEDEE981E73011F0E8309E
:100A800039F4EB81EA93AA810E94CF10EB8308C06E
:100A9000E33021F4EB81E095EB8302C0E03021F4F8
:100AA000EA81E0951E2302C0E23029F4EA81AB819D
:100AB000EA231E2B0EC0E13029F4EA81AB81EA2340
:100AC0001E2707C0E43029F4EA81E095AB81EA2BC8
:100AD0001E23A12F0E942712188126960895AA93FB
:100AE00023970E94AA16A889A03848F4AF85A0349D
:100AF00030F4AE85A03019F0AD85A03009F4C8C13E
:100B0000EE85E887A889BB27EE85F0E0AE0FBF1F12
:100B1000A138E0E0BE0720F0A889E0E8EA1BEE87F4
:100B20002D85AF85BB27ED85F0E0AE0FBF1FA1344B
:100B3000E0E0BE0720F0AF85E0E4EA1BED87A98581
:100B4000A63009F05BC0EC85E13009F4A1C1E330C7
:100B500039F4E0910F02F0911002309709F498C136
:100B60000885ED85E695E695E6953E2FE22FE77040
:100B700019F4AD852A17E9F0A02FBB27E32FF0E089
:100B80000E94ED15AA85BB850E942B1226952695FD
:100B90002695532F5F935F5FE22FAF91EA1748F0DE
:100BA000102FE12F1150E03019F00E943012F9CFD0
:100BB000F1CFAE850A1711F1EE85AA85BB85F0E06D
:100BC0000E942B12ED85E77009F03F5F20E02F9324
:100BD0002F5FE32FAF91AE1788F41E851F931F5F21
:100BE000E02FAF91AE1718F40E943012F7CFEE85C8
:100BF000AE81BF81F0E00E942B12E9CFEF85E77054
:100C00003E2FED85E03009F443C1EA85FB85EE8394
:100C1000FF8310E00889303009F065C0AD85A83049
:100C200008F45CC0E985E03011F0E33009F402C05B
:100C3000E73009F402C0E83009F402C0E63009F4F4
:100C400002C0E93009F402C0EA3021F40A93E889CD
:100C50000E9421121F931F5FEE85AF91AE17B8F56A
:100C6000A985A63061F425DEE5DD0E943D12FA93E8
:100C7000EA931FDEAE2F0E941611FDDD27C0E98525
:100C8000E93011F450E00EC0EA3011F45FEF0AC011
:100C90000E943D120E9446125E2FE985E73011F056
:100CA000E83021F40E944C125E2F06C0E33011F4AC
:100CB000509502C0E03021F4A52F0E94271206C0F3
:100CC0000E945012EFEFEA93AD85CEDEC3CFEF85E1
:100CD000E85FEF87ED85E850ED87D1C05D8520E0C6
:100CE000E0E0ED877AC0E32FAD85AE0FA93020F4A8
:100CF0002D85E0E0ED8703C0E8E0E31B2E2F3A935B
:100D0000A22F0E94C4104E2FE985E630F1F41F9304
:100D10001F5FEE85AF91AE17B8F40E945612AE2F4A
:100D2000E32F0E94D0150E945D12E32FA42F0E9492
:100D3000D015E095E1215E2B0E943D12FA93EA93D3
:100D4000A52F0E941611E3CF2CC0E93011F450E01A
:100D500003C0EA30A9F45FEF0E944C12AE2FE32FDC
:100D60000E94C8155E2F1F931F5FEE85AF91AE17CF
:100D700030F40E9450124A93A0E076DEF4CF11C006
:100D80001F931F5FEE85AF91AE1758F40E94681253
:100D9000AE2FE32F0E94C815EA934A93AD8564DE17
:100DA000EFCFED85E03009F473C0AD85A83028F4AD
:100DB000ED85E21B5E2FE0E003C0532FED85E85088
:100DC000ED8710E0EF85E85FEF87E8E0E31B2E2F6B
:100DD0000889EA85FB85EE83FF83E52FF0E0E85C78
:100DE000FD4F4491E985E630F1F41F931F5FEE85D6
:100DF000AF91AE17B8F40E945612AE2FE22F0E94A8
:100E0000C8150E945D12E22FA42F0E94C815E0951C
:100E1000E1215E2B0E943D12FA93EA93A52F0E94D6
:100E20001611E3CF2CC0E93011F450E003C0EA30D2
:100E3000A9F45FEF0E944C12AE2FE22F0E94D01552
:100E40005E2F1F931F5FEE85AF91AE1730F40E94A7
:100E500050124A93A0E008DEF4CF11C01F931F5F29
:100E6000EE85AF91AE1758F40E946812AE2FE22FB4
:100E70000E94D015EA934A93AD85F6DDEFCFE88561
:100E8000AA85BB85F0E0EA0FFB1FEA87FB87B9CE96
:100E90000E94B116619608950E9475121CF0E0E060
:100EA000F0E048C1A881B981A038E0E0BE071CF09D
:100EB000EFE7F0E03FC1E881F9813CC10E94751283
:100EC0001CF0E0E0F0E036C1A881B981A034E0E098
:100ED000BE071CF0EFE3F0E02DC1E881F9812AC1E3
:100EE000AA93E981EA93E981EA93A091F4017EDD76
:100EF00021C1BA93AA9323970E947C128F01002EDE
:100F0000012A19F4E0E0F0E05FC00E9483120F8232
:100F10000E9483120E820E9483120886EB85A885A8
:100F2000EA1718F4E0E0F0E04FC0F8010F5F1F4F40
:100F30005491A885BB27EE27A50FBE1FEB85F0E0D7
:100F4000EA17FB0718F0E0E0F0E03EC0EE81E6951E
:100F5000E695E6954E2FEE81E77009F04F5FEF8141
:100F6000E030A1F0A985BA85EC93A885EB85EA1B52
:100F7000F0E0DF01EF81F0E00E94ED15DF01E42FEA
:100F8000F0E00E94ED15E00FF11F1EC09801E52F63
:100F9000F0E00E0F1F1FA885AF5FA887A150EB855B
:100FA000AE1760F4F9012F5F3F4FA491B0E0E42F3A
:100FB000F0E00E94ED150E0F1F1FEDCFF901E49137
:100FC000A985BA85EC93F8010E94B1162C96089574
:100FD000E0E0E093F601A091F701BB270E948812A0
:100FE000F0E0AE0FBF1FE091FB01F0E0AE0FBF1FBE
:100FF00065DFE093F7010895AA9321970E947C1280
:10100000309709F457C0AF81AA3009F44FC0EF817F
:10101000EA93DE0117966DDFAF01309719F40E9455
:10102000B11646C4E091FA01AE81EA0F3E2FA091BD
:10103000F601BB270E948F120138E0E01E0718F06E
:10104000032F1127C5DFE091F601EA93E091F70144
:10105000EA93E885EA930E948812EA93E1E0EA9332
:101060005A934A93A7E03BDDE091F601AE81EA0F87
:10107000EA93E091F701EA93E091FA01EA930E9482
:1010800088120E949412E091F601EA93A091F70170
:101090000E948812EA0FEA933A93E091FB010E94C2
:1010A0009412E0E8F0E0E017F10721F491DF0E94EC
:1010B000B116FEC30093F6010E94B116F9C3BA93AC
:1010C000AA931A93EC81EA93AC8129D0A981BA81C1
:1010D000ED91A983BA831E2FE03019F0A12F8CDF88
:1010E000F5CF188125960895AA93EA81EA93EA81BB
:1010F000EA93E091FD01AA81EA2319F0E091F4015D
:1011000002C0E091F501AE2F71DCE881EE0FE883BB
:10111000E03011F4E1E0E883E88123960895AA9392
:10112000A981BB27B9DEE093F601A881BB27C6DE03
:10113000E093F70122960895AA932B970E94AA168E
:10114000AC89BB27A9DEEC8BAA89BB27A5DEEA8B7D
:10115000AB89BB27B3DEEB8BA989BB27AFDEE98B5D
:10116000EA89E093F601E989E093F701E1E0E88795
:10117000E989AB89EA1771F51C89AA891A1731F434
:101180001A93EC89EA93A1E0AFDFC8C0AA891A17C5
:1011900030F4EA89E11B0E2F41E050E006C0AA8935
:1011A000E12FEA1B0E2F4FEF5FEF3B89E0E0EE836C
:1011B0000E949E1238F41A933A933395AA8594DFCD
:1011C000EF83F6CFEF81E887140FE02F0150E03076
:1011D00061F7A4C0EA89AC89EA1739F53B89A98986
:1011E0003A1730F4E989E31B2E2FE1E0F0E006C066
:1011F000A989E32FEA1B2E2FEFEFFFEFED87FE8784
:101200001C89E0E0EE830E949E1230F41A9313953D
:101210000E94A612EF83F7CFEF81E887ED853E0F9E
:10122000E22F2150E03061F779C0E0E0EE830E94C8
:101230009E1208F073C01C893B89E1E02E2F0E2F0F
:10124000AA89BB27EC89F0E0AE1BBF0BAD0155238B
:101250002AF40FEFFA010E94BC15AF01FA01EE0F5C
:10126000FF1FEF87F88BA989BB27EB89F0E0AE1B46
:10127000BF0BAD87BE87AE85AA233AF42FEFED856D
:10128000FE850E94BC15ED87FE87ED85FE85EE0F7D
:10129000FF1FEB87FC871A933A93A1E025DFE887CD
:1012A000E0E0E987EA87AD85BE854A175B07BCF0B9
:1012B000100FEB85FC850E94AA12A985BA854A17F2
:1012C0005B072CF4320FAF85B8890E94B1121A93D4
:1012D0000E94A612E887EA89E11751F718C0320F79
:1012E000EF85F8890E94AA12ED85FE85A985BA8549
:1012F000EA17FB072CF4100FAB85BC850E94B112D6
:101300001A930E94A612E887E989E31741F7EB894F
:10131000EF5FEB8BE989EF5FE98B89CF0E94B11614
:1013200065960895BA93AA930E94AA16EE81FF814A
:10133000138101813281AE81BF812C91011718F494
:10134000502F012F152F231718F4522F232F352F2D
:10135000E12FAE81BF811396EC93E32FAE81BF8165
:101360001296EC93E02FAE81BF811196EC93AE8183
:10137000BF812C930E94B1169BC2AA9322970E9410
:10138000AA16EA85E03019F0E985E03009F45EC07C
:10139000E885AC85EA0F1E2FE885AB85EA0F2E2F76
:1013A000E091FC01E150EF83EA85AC85AE0FA150DE
:1013B0003A2FA885E32FEA1B0E2FAF813A1BE98550
:1013C000AB85AE0FA1504A2FA885E42FEA1B5E2FF4
:1013D000AF814A1BE091FD01EE83EFEFE093FD0149
:1013E0001A93EC85EA93E02FE150EA93AE85A4DEF0
:1013F0000A932A93EA85EA93A1E8B5D13A932A930E
:101400003A93A52FA15098DE0A935A93EA85EA935E
:10141000A8E8A9D10A934A931A93A42F8DDE1A93B0
:101420005A93EA85EA93A4E89ED1EC85EA935A930D
:10143000EE85EA93A22F80DE1A932A93EA85EA9337
:10144000A2E891D1EE81E093FD0104C0EC85EA931E
:10145000AC8546DD0E94B1162D960895BA93AA93E5
:1014600023970E94AA16ED85E887E091FC01EF839F
:10147000E091F401EE83AA89BB27EF850E948F12C9
:10148000A989BB27E8890E94B812E8890E94BF1287
:1014900071F0E885E078F1F4AD85BE85EAE5F0E02D
:1014A0000E94C7121CF00E94D0120CF413C0332308
:1014B00012F00E94D512AF81A23020F02230E0E07D
:1014C0003E070CF407C00E94D91221F40A93A22F00
:1014D000A15006DDE885E878E83891F0E885E07805
:1014E000C9F4AD85BE85A25FBE4F0E94E2123CF0FA
:1014F000AD85BE85A25FBE4F0E94E7120CF40AC004
:101500000E94EC1238F00E94F31221F40A93A42FE7
:10151000AF5FE6DCAA89BB27EF85F0E0AE1BBF0B0F
:101520008D0111230AF445C0E885E278E23891F094
:10153000E885E07811F5AD85BE85A65ABF4F0E94BB
:10154000E2123CF0AD85BE85A65ABF4F0E94E7125D
:101550000CF413C0332312F00E94D512AF81A230D5
:1015600020F02230E0E03E070CF407C00E94D912C0
:1015700021F40A93A22FA150B3DCE885E478E43883
:1015800071F0E885E078A9F4AD85BE85EEE0F1E084
:101590000E94C7121CF00E94D0120CF40AC00E94D4
:1015A000EC1238F00E94F31221F40A93A42FAF5FDB
:1015B00097DCAA89BB27E8890E948F12A989BB27DB
:1015C000EF850E94B812EF850E94BF1281F0E88576
:1015D000E078F1F4EB85FC85AD85BE85AE17BF07DD
:1015E0002CF0E985FA85EA17FB070CF411C03323C8
:1015F0007AF00E94D512AF81A23050F0E02FEE5F5A
:101600000E94FC1229F4E02FEF5FEA93A22F68DC1E
:10161000E885E878E83871F0E885E078C1F4AD85D0
:10162000BE85E8E6F1E00E94C7121CF00E94D012CD
:101630000CF40DC00E94EC1250F0E02FEE5F0E94FF
:10164000041329F4E02FEF5FEA93A42F49DCAA8961
:10165000BB27E889F0E0AE1BBF0B8D0111230AF414
:1016600050C0E885E278E23871F0E885E07809F565
:10167000AD85BE85E4EBF0E00E94C7121CF00E942D
:10168000D0120CF416C03323A2F00E94D512AF8101
:10169000A23020F00230E0E01E070CF40AC0E02F78
:1016A000E2500E94FC1229F4E02FE150EA93A22FAD
:1016B00017DCE885E478E43891F0E885E07809F50E
:1016C000AD85BE85AC54BF4F0E94E2123CF0AD85A3
:1016D000BE85AC54BF4F0E94E7120CF412C00E94AA
:1016E000EC1220F00230E0E01E070CF40AC0E02FFC
:1016F000E2500E94041329F4E02FE150EA93A42F52
:10170000EFDB0E94B11663960895AA930E94AC166F
:10171000AF81BB27ED81F0E0AE1BBF0BBDDB1E2F01
:10172000AF81BB27ED81F0E0AE0FBF1FB5DB0E2F01
:10173000AE81BB27EC81F0E0AE1BBF0BBFDB3E2FC1
:10174000AE81BB27EC81F0E0AE0FBF1FB7DB2E2FC1
:101750001A933A930A93A32FEFDC1A932A930A93CE
:10176000A22FEADCA3C0AA930E94AA16A985A038DA
:1017700018F4A885A03408F04FC05091FC01E52F63
:101780005150E03009F448C0EF81E03009F444C022
:10179000EF81E150EF83EF5F0E2FF0E0A5E0B0E0C6
:1017A000AE1BBF0BFD010E94D8150E94DD159F01E5
:1017B00010E0AE81A03459F40E940C131A93A02FAC
:1017C000A4DF0E940C130A93A12F9FDF0FC00E9479
:1017D0000C131A930A93EA85F0E0FA93EA93E0E097
:1017E000F0E0FA93EA93A0E0B0E038DE1F5F332325
:1017F0001AF4E12FF0E008C00150A12FBB27E02F21
:10180000F0E0AE1BBF0BFD01EE0FFF1F31962E0F58
:101810003F1F011770F6B3CF0E94B1162A960895A4
:10182000AA93EA81EA93EA81EA93EA81EA93AFE82C
:101830009ADF0C941411AA930E94AC16AF81A038C1
:1018400018F4AE81A03408F031C0ED81E03019F019
:10185000EC81E03009F42AC03E81E32FAC81EA0F2D
:10186000EC83EF81AD81EA0FED83EC813E17F0F45C
:10187000E31B2E2F293008F028E01F81ED811E1771
:1018800098F4E11B0E2F093008F008E01A933A9300
:101890000A932A93E0E0EA93E5E0F2E0FA93EA9310
:1018A000A8E01DD9100FEACF320FDFCF0E94B31688
:1018B00028960895AA93DE0135DDEB81EA93EB814A
:1018C000EA93AD81EB81EA1BEF5FEA93AD81EB8197
:1018D000EA1BEF5FAE2FAFDF0C947B11BA93AA9394
:1018E0001A930A93AA81BB8112960E9449163097D7
:1018F00029F1AA81BB8114960E9449168F01309765
:1019000061F00230E0E01E0780F0F80131978F01AE
:10191000AA81BB811496ED93FC93AA81BB81129698
:101920000E9411133197AC81A083AA81BB810E94D0
:101930004916FF2312F00E94111306C0AA81BB8131
:10194000EFEFFFEFED93FC93198108810C949C104D
:101950000E941713E0E8EA83EFE3EB830E94AC16E2
:10196000EE85FF85EF3FAFEFFA0749F4E885F9858B
:10197000FA93EA93A2ECB2E00E949E10B7C0EF3F48
:10198000AFE7FA0749F4E885F985FA93EA93A3ECFF
:10199000B2E00E949E10AAC0AB85A73010F0E6E02E
:1019A000EB871B85E12F1150E03019F00E941E13C8
:1019B000F9CFEC85FD856E857F850E94A21621F406
:1019C00030E00E941E132DC03B850E942D1309F0AC
:1019D00008F40BC00E941E130E942D1328F00E94D1
:1019E00038130E943D13F8CF0DC00E942D1340F410
:1019F0000E9438130E9449130E9450133150F5CFB2
:101A00000E941E13EC85FD856E857F850E9455130F
:101A10000E9450130E942D1320F00E9438130E9440
:101A20003D1310E0EB85E117A8F1AC81BD818E81FB
:101A30009F810E945C130E945513DF01CB010E941D
:101A40006611EC83FD836E837F830E9438130E94AE
:101A500053150E9442140E2F0E9463130E946A13B2
:101A6000FF27662777270E947B14AC81BD818E817A
:101A70009F810E9405150E9438130E946F130E94D7
:101A80005013E12F1F5FE03069F60E946313EEE20E
:101A9000EC93C8CF0E9474133197AA85A08330308D
:101AA0002CF43195A885B985EDE203C0A885B985E8
:101AB000EBE2EC930E9474130E9474133197BF0100
:101AC000A32FEAE00E940316E05DDB01EC930E9485
:101AD00074133197BF01A32FEAE00E942D16E05D39
:101AE000DB01EC93A885B985E0E0EC930E94B31686
:101AF00060960895BA93AA93EF9761970E94AA16E9
:101B000010E0FE01E85AFF4F0190F081E02DE887D8
:101B1000F987FE01EA5AFF4F0190F081E02DEE8334
:101B2000FF83AE81BF81E0E0F0E0ED93FC93DE0146
:101B3000A45ABF4F0E9411133197E4912E2FE03029
:101B400009F4E9C1E12FE03039F4253211F411E054
:101B500002C00E947A13DEC1E130C1F4253219F4CB
:101B60000E947A13D6C112E0E0E0ED8B00E02D3246
:101B700011F401E0CFC12B3219F4EBE2ED8BCAC1B5
:101B8000203219F4E0E2ED8BC5C102C0E23039F435
:101B900050E013E0203311F40068BCC102C0E33010
:101BA00091F4203310F02A3308F007C0AAE05A9FBE
:101BB000502DE22FE0535E0FADC140E02E3211F404
:101BC00014E0A8C10FC0E43099F4203310F02A3398
:101BD00008F008C00062AAE04A9F402DE22FE053BF
:101BE0004E0F98C12C3619F4026015E093C103C062
:101BF000E53009F08FC1E22FE33659F40E948113DA
:101C00000E9488130E948113A481AA930E948F13BB
:101C100080C1E53411F0E53609F403C0E63609F079
:101C200048C0FE017696EE87FF870E9495130E94BA
:101C30004D160E949C130E94A113AD85AA2332F079
:101C4000AD89AB3259F0A03281F017C00E94A313C6
:101C50000E940F140E949C13EDE2ED8B07FF05C05C
:101C6000ED89EA930E948F1308C0EE85FF853196B7
:101C7000EE87FF873197AD89A08305FF46E02636C2
:101C800051F40E94A3130E9462164A93AB89BC8947
:101C90000E94C80F09C00E94A3130E9462164A93B3
:101CA0002A93AC89BD8954DEFE0176960E94A81362
:101CB0001EC0E33739F40E94A1130E94B0130E94A2
:101CC000A8130EC0E037C1F40E94A1130E94B01304
:101CD000EE87FF87AE85BF850E94B7101E2F086074
:101CE0000F77403011F0411708F001C0142F40E089
:101CF000E0E0EC8B30E06DC0E43611F0E93611F431
:101D0000046002C0E537A1F4EAE0EC8B01FF08C0F3
:101D1000E0E0FAEC6AE97BE30E94B5131AE022C026
:101D2000E0E1F7E260E070E00E94B51315E01AC050
:101D3000E83511F4086003C0E83709F0EAC0E0E1D3
:101D4000EC8B01FF08C0E0E0F0E060E070E10E9491
:101D5000B51318E007C0E0E0F0E160E070E00E9439
:101D6000B51314E0403011F00F7701C041E001FFDE
:101D700008C00E94A1130E94951314960E944D164C
:101D80000FC002FF07C00E94A1130E94B0130E945F
:101D9000E81506C00E94A1130E94B013662777279A
:101DA000EA87FB876C877D8702FF12C0AD85AA2377
:101DB00042F40E94A3130E94C0150E949C13EDE2FE
:101DC000ED8BED89E03019F01F5F4F5F01C00B7F95
:101DD000342F00FD14C0151710F4351708F00FC08C
:101DE00007FF08C002FF04C00B7F2D89115001C0FE
:101DF00020E301C020E20E947A135150ECCF141767
:101E000090F4006102FF06C00E94BA1309F051501D
:101E100011504150E0E3EA930E948F13503009F0D3
:101E200051504150ECCF312FEC89E030B9F43030D3
:101E3000A1F003FF06C0EE85FF852591EE87FF87A1
:101E400005C0AE85BF852D91AE87BF870E947A13EE
:101E5000503009F051503150EACF51C00E94CC139C
:101E60000E9408162E2F2A3030F003FF02C0295C92
:101E700001C0295A01C0205D04FD21C0213360F456
:101E8000A889B9898A899B89A130E0E0BE07E0E092
:101E90008E07E0E09E0709F40BC0431740F4531788
:101EA00010F000FF01C010C020E207FF08C020E3CF
:101EB000006102FF04C00E94BA1309F051500E9451
:101EC0007A13503009F0515031500E94CC130E94C7
:101ED00039160E949C13EC89A889B9898A899B8943
:101EE000FF27662777270E9408160E94B513E88906
:101EF000F9896A897B890E94A21609F0AFCF00FF99
:101F000008C0503031F05150E0E2EA930E948F1344
:101F1000F8CF10E00CCEAE81BF810E9449160E941E
:101F2000B116EF966F960895FF92F82E26970E94AD
:101F3000AC160E94D513309719F4EFEFFFEF23C0D2
:101F4000DE0116960E94B8158D010E94D513EE830E
:101F5000FF83E0E0E887E987DE011A960E94B81562
:101F60000E944916FA93EA931A930A93EEE6FCE06C
:101F7000FA93EA93DE011A96BDDD9F01AE81BF811F
:101F8000E0E0EC93F9010E94B3162A96FF900895C1
:101F90000E941713E0E0EA83EFE3EB831A930A93BE
:101FA000EB85FC85EF3FAFEFFA0739F40E94DC13B5
:101FB000AAECB2E00E949E10ADC0EF3FAFE7FA0777
:101FC00039F40E94DC13ABECB2E00E949E10A2C078
:101FD000AC85AA2362F4E985FA856B857C850E942D
:101FE0000F140E94E1130E94E613EDE2EC93A88522
:101FF000A73010F0E6E0E8871885E12F1150E030B7
:1020000039F00E94ED130E945C130E94F213F5CF89
:102010000E94F7130E94B5140E94E11310E0E0E063
:10202000F0E060E87FE30E94F2130E94F7130E9441
:10203000981588F00E94ED130E9449130E94F21334
:102040001F5F173238F00E94DC13AFECB2E00E9441
:102050009E1060C0EACF103029F40E94E613E0E33E
:10206000EC932BC0E12F1150E03039F10E94ED13B9
:102070000E945C130E945513DF01CB010E94661180
:102080000E94F2130E94F7130E9453150E944214FB
:102090000E2F0E94E6130E946A13F0E00E94ED13D7
:1020A0000E94E8150E947B140E9405150E940014EE
:1020B0000E946F130E94E113D5CFE885E03031F123
:1020C0000E94E613EEE2EC93E885E150E887EF5FCB
:1020D000E9F00E9400140E9449130E94E113E9856F
:1020E000FA856B857C850E9442140E2F0E94E613B0
:1020F0000E946A13F0E00E9400140E94E8150E94FA
:102100007B140E946F130E94E113DECFAE81BF816A
:10211000E0E0EC93198108812D960895BA93AA9373
:10212000B981A881109631F0FC81EB816A816193BD
:102130001197E9F7EB81FC8125960895BA93AA934C
:10214000E991F991A991B991CD0105900D920020E5
:10215000E1F7FC010895BA93AA93A991B991EE27EA
:10216000FF276D91662311F03196FBCF0895BA9346
:10217000AA93AA27BB27E991F9910590002011F0B5
:102180001196FBCFFD010895AA93E881F0E0E85C89
:10219000FD4FA491E9810E94C81522960895AA9343
:1021A0001A93E981E73011F0EA3019F41091F40143
:1021B00009C0E93019F41091F50104C0E830A1F428
:1021C00010910402E091F501E03049F0103019F06F
:1021D000EFEF188129C0EA81E095188125C0103001
:1021E00019F4E0E0188120C0EA8118811DC0BA937B
:1021F000AA93EA81E13021F4E881F981E49114C0E5
:10220000E23029F4A881B9810E947D160DC0E33027
:1022100041F4A881B981E0910D02F0910E02099577
:1022200003C0A881B981EC9123960895AA93EB810C
:10223000E03029F4E881A981BA81EC9314C0E2303E
:1022400031F4E881A981BA810E9491160CC0E33073
:1022500051F4E981FA81FA93EA93AA81E0910F029D
:10226000F091100209950C947B110E9467167B81F6
:102270006A81F981E88177FB770F67FD7160972F9D
:102280009E5781F078F0983190F4AA27BB278827D1
:1022900008948795B795A7959A95D1F7EA23FB23DC
:1022A000682305C0E8947727EE27FF2766276F7716
:1022B000769508F4606877F9A991B9918991999117
:1022C000EA17FB076807790797FB08950E946716CE
:1022D0000E9458160E9435110E945D1619F40E9442
:1022E000531609C0E6F70E945316A0E0B0E080E85C
:1022F0009FE30E94AE14249608950E94D004E2E069
:10230000EA93EA93ECE7EA93ECE3EA93A5E00E9410
:10231000BD09EFE0EA93E5E0EA9308950E945F08C3
:10232000E0E2EA93EBE2EA93AFE00E94100CE5E111
:10233000EA93E8E2EA9308950E945F08EFE5EA93E2
:10234000EBE2EA93AFE00E94100CE3E5EA93E8E2E7
:10235000EA930895A0E0B0E00E9479160895A0E005
:10236000B0E080E890E40E94AE14DF01CB01E0E031
:10237000F0E060E870E40E9453150895FA93EA9340
:10238000ECA1FDA16EA17FA1EACF0E94621684E0BC
:102390000E94940F289608951A930A9300E010E083
:1023A0000C94D004A2E0B0E0A00FB11F0E947D16F3
:1023B0000895AE89BF89888D998D0E94E8150E9485
:1023C0007B140895EE8BFF8B688F798F0895FE0143
:1023D0003296FA93EA93EBEBF2E0FA93EA93EA8D02
:1023E000FB8D6C8D7D8DD1CFEA93DE0114960E941A
:1023F0005F08A2E0B0E00E947D16FF2766277727DE
:102400000E947B14DFDF01E010E00895AE89BF89F0
:10241000888D998DFF27662777270E947B140E945D
:1024200098150895FF27662777270E947B14CACF47
:10243000A998EFEFE7BBE881E8BB0E94ED030C949D
:10244000F103E695E695E695AE2F0C942C040E94D8
:1024500050040C943B04EA0FFB1FEE83FF830895A6
:10246000EC85EA93EF81F8853196EF83F887319711
:10247000FA93EA93A0E00C941611EC85EA93EF81AD
:10248000F8853196EF83F887319708956627772787
:10249000DF01CB010C94F7105A93AA850C94CF104E
:1024A0000A930395E889EA935A9308950A9303954A
:1024B000A8890E946204E42308955E2FEC85EA93C4
:1024C000AF81B885882799270E94F7101E2E08959E
:1024D0000A930395E889EA93EE85EA93E985FA85FC
:1024E0003196E987FA873197D1CFBA93AA93A88119
:1024F000B9810E94A61608950E94AA16E091F801DB
:10250000F091F9010895F8010F5F1F4F04900895AD
:10251000E091F801F091F9013196E4910895F0E02D
:10252000EA0FFB1F8F010895EA93E0E0EA93E0E0F1
:10253000F0E0FA93EA93A9E00C946F05AE81AF5FE7
:10254000AE83A150E091FC01AE1708953A93AA859D
:102550000C947408A985BA85EA0FFB1FE987FA87EE
:102560000895E985FA85EA1BFB0BE987FA87089548
:10257000F0E0AE1BBF0B9D01A989BB270895F0E0D9
:10258000EA0FFB1FAF01E885E178E1380895EA1B07
:10259000FB0B0F01DF01EB85FC85AE17BF0708952C
:1025A000E985FA85E015F10508950A93A22F0C94A8
:1025B00070070A93A22FA2500E941B05AE2FEE8136
:1025C000EA170895EB85FC85AE17BF070895E985E6
:1025D000FA85EA17FB0708950A93A42F0E94700753
:1025E000AF81A23008950A93A42FAE5F0E941B050D
:1025F000AE2FEE81EA170895EA93A22F0E941B05E1
:10260000AE2FEE81EA170895EA93A42F0E941B05CE
:10261000AE2FEE81EA170895E985EA93E985EA93FA
:102620000895ED91FD913196FE93EE930895BA933E
:10263000AA932497E0E0E883E9830895AC81BD8103
:102640008E819F81E0E0F0E060E271E40E94051578
:10265000EC83FD836E837F830895EC81FD816E8121
:102660007F81AC85BD858E859F850E9498150895D4
:10267000AC85BD858E859F850895EDECFCEC6CECFA
:102680007DE30E940515EC87FD876E877F873F5F9E
:102690000895E0E0F0E060E271E40E94051508951D
:1026A000EC87FD876E877F870895A0E0B0E080E02B
:1026B0009FE30E94B5140895EDECFCEC6CEC7DE317
:1026C0000E9405150895A885B9851196A887B98730
:1026D00011970895E02FE05DEC93E02F08950E949C
:1026E0006C160E94AE140895E885F9853196E88746
:1026F000F98708952A93AF81B885E985FA85099508
:102700000895FE01E65AFF4F0190F081E02D0895F3
:102710003497DE01A65ABF4FED93FC930895AF8125
:10272000B885E985FA8509950895DE01A65ABF4F57
:102730000D90BC91A02D0895EA87FB876C877D875B
:102740000895DFDFE5CFEA85FB856C857D850895FB
:10275000EE87FF87AE85BF850E94AB101E2F0895C0
:10276000E4DF14960E9449160895E88BF98B6A8B72
:102770007B8B08950B7FED89EA93DE01A95ABF4F49
:102780000D90BC91A02DFE01E75AFF4F0190F08102
:10279000E02D099550300895E889F9896A897B8987
:1027A000AA85BB858C859D850895DE011C960E94B7
:1027B000B8150E9449160895EE81FF81FA93EA93B5
:1027C0000895E987FA876B877C870895AE81BF817A
:1027D0001196AE83BF8311970895AA81BB818C8126
:1027E0009D810895EA83FB836C837D830895EA814C
:1027F000FB816C817D81A985BA858B859C85089537
:10280000A985BA858B859C850895109639F080ED51
:1028100097E00197F1F7A8951197C9F708953097B8
:102820006040704009F070580895552342F45038C4
:1028300011F4E0FF04C03196691F791F6BF050E876
:10284000572711F45F93CFC05F3F31F0660F000C44
:1028500057956795752F08955F9300200AF0CFC0B4
:10286000C8C050E8192E1522880F991F9527550FBB
:10287000879550E8072E0522660F771F7527550F9D
:1028800067950895689401C0E8945F93F2DF70380B
:1028900018F07F3F08F4A7C056E1571BAAF45195E2
:1028A00058300EF4593030F0EFEFFFEF6FEF7FE765
:1028B00077F91AC077275523B9F0EE0FFF1F661F6F
:1028C000771F5A95D1F710C07727583028F0EF2F8F
:1028D000F62F672F5850F9CF552331F0769567952D
:1028E000F795E7955A95D1F700200AF449D15F9101
:1028F0000895689401C0E894309760407040B1F04A
:10290000002426F0772312F400943AD1172E7EE1AA
:10291000112032F07A95EE0FFF1F661F111CF9CFC0
:10292000EF2FF62F612D5F938ADF5F9108954F930C
:10293000AF01FD01DA01AB01BC01CA01402D012C40
:10294000142E4F910895EA0FFB1F681F0895E0951C
:10295000F0956095EF5FFF4F6F4F08955F9381DFB4
:10296000903871F150E8152604C05F937ADF9038F3
:1029700039F1703821F1572F591B2BF112F4D7DFA1
:10298000FACF583118F0AA27BB278827583028F0EB
:10299000AB2FB82F88275850F9CF552329F08695AB
:1029A000B795A7955A95D9F7502D512572F0CBDFE1
:1029B00038F46795F795E795739513F420C0B7DF62
:1029C0003EDF5F910895D8F7FBCFEA1BFB0B680B46
:1029D00051F010F40094BBDF662392F3EE0FFF1F5B
:1029E000661F7A95CBF7EE27FF27662777275F913B
:1029F0000895EFEFFFEF6FE77FEF5F910895EFEF3F
:102A0000FFEF6FE77FE75F9108955F932ADF7038EC
:102A100051F3903841F301240894791F23F41CF3F7
:102A200000203AF3ECCF0F921F932F933F934F93D5
:102A3000112722279927689FA0018F9F302D410DD4
:102A4000591F6B9F300D411D591F8E9F27D0BF9F6F
:102A500025D06A9F23D0BE9F1DD0AF9F1BD0AE9FB5
:102A6000110D291F391F491F591FE32FF42F652FFF
:102A7000522F4F913F912F911F910F9066232AF073
:102A8000550FEE1FFF1F661F02C073954BF2CDDE80
:102A90005F910895100D211D391F02C0200D311DB9
:102AA000491F591F08955F93DCDE703821F411200F
:102AB0000AF49FCFA4CF903809F495CF012408944D
:102AC000970B1BF4D4F30020F3CF792F1F932F9390
:102AD0003F934F931124112722273327442755274B
:102AE00090E2AE17BF078607410730F0AE1BBF0B61
:102AF000860B410B089401C08894551F221F331F79
:102B0000111CAA1FBB1F881F441F9A9551F7F9017A
:102B1000612D4F913F912F911F91662332F0550FF8
:102B2000EE1FFF1F661F7A9543F27FDE5F910895C7
:102B300099239AF0772342F0971748F029F4AE17BB
:102B4000BF07860720F031F09894889408959894F0
:102B5000089408951894889408957723C2F79717D6
:102B600098F3A9F7EA17FB07680788F399F3ECCF06
:102B70000024AF0DB01D0895F195E195F040089542
:102B8000F09560957095E195FF4F6F4F7F4F0895D9
:102B9000EE230E2EEA2F19F0EE0F0A94E9F70895AE
:102BA000EE230E2EEA2F19F0E6950A94E9F7089520
:102BB000EE0FFF1FEE0FFF1F0895F595E795F595B2
:102BC000E7950895FE2FFF0FFF0B6F2F7F2F0895BE
:102BD0006F2F660F660B762F0895FA9FF02DEB9FEF
:102BE000F00DEA9FE02DF10D0895002498E0AA0F62
:102BF000001C0E1A10F40E0E01C0A1609A95B9F7D0
:102C0000EA2FA02D089539D0F0DF0EF4E195089554
:102C10003F934F935F93002411244427552730E2BC
:102C2000AA0FBB1F881F991F001C111C441F551F92
:102C30000E1A1F0A460B570B28F40E0E1F1E461FB6
:102C4000571F01C0A1603A9559F7FD01BC01D001A1
:102C5000CA015F914F913F910895E894A7FF02C088
:102C6000A1956894E7FDE195C0DFEA2F0EF4E195A8
:102C70000895CEDFFD01BC010895E894E7FF02C08E
:102C8000E1956894A7FF04C0A19500F8039400FAA9
:102C90000895ED91FC9111970895ED91FD916D913D
:102CA0007C9113970895E881F9816A817B81089569
:102CB000A881B9818A819B810895E883F9836A8319
:102CC0007B8308957A936A93FA93EA9308959A938B
:102CD0008A93BA93AA930895182E862F612D192EE0
:102CE000972F712D1B2EBF2FF12D1A2EAE2FE12DF8
:102CF0000895119602D0FE2F1197E199FECFFF9310
:102D0000FFB7F894AEBBBFBBE09AEDB3FFBFFF9136
:102D1000089507D01196EF93EF2F03D0EF911197FD
:102D20000895E19B02C0A895FCCF9FB7F894AEBB75
:102D3000BFBBE09A8DB3E81719F0EDBBE29AE19AB8
:102D40009FBF0895309760407040089500240A1690
:102D50000B0608955A934A933A932A931A930A9327
:102D600008955D814C813B812A81198108810895F4
:00000001FF
