:0E0000000C94B2020C94DF020C94E2020C94F9
:10000E00E5020C9400000C9400000C9400000C947B
:10001E0000000C9400000C9400000C9400000C9452
:10002E0000000C9400000C9418030C9400000C9427
:10003E00E6020C9400000C9400000C9400000C944A
:10004E0000000C9400000507206000000000000076
:10005E00005F00000007000700147F147F14242A9D
:10006E007F2A122313086462364955225000050375
:10007E000000001C2241000041221C00082A1C2AFC
:10008E000808083E08080050300000080808080854
:10009E00003030000020100804023E5149453E0059
:1000AE00427F400042615149462141454B3118146F
:1000BE00127F1027454545393C4A4949300171099F
:1000CE0005033649494936064949291E0036360088
:1000DE0000005636000000081422411414141414A3
:1000EE0041221408000201510906324979413E7E2F
:1000FE001111117E7F494949363E414141227F41CE
:10010E0041221C7F494949417F090901013E414174
:10011E0051327F0808087F00417F41002040413F57
:10012E00017F081422417F404040407F0204027F3D
:10013E007F0408107F3E4141413E7F090909063E7A
:10014E004151215E7F09192946464949493101012C
:10015E007F01013F4040403F1F2040201F7F20185D
:10016E00207F631408146303047804036151494526
:10017E004300007F4141020408102041417F0000EE
:10018E0004020102044040404040000102040020ED
:10019E00545454787F4844443838444444203844B6
:1001AE0044487F3854545418087E090102081454E8
:1001BE00543C7F0804047800447D40002040443DB8
:1001CE0000007F10284400417F40007C0418047812
:1001DE007C0804047838444444387C141414080809
:1001EE001414187C7C080404084854545420043F0A
:1001FE004440203C4040207C1C2040201C3C403091
:10020E00403C44281028440C5050503C4464544CFC
:10021E0044000836410000007F000000413608000F
:10022E0002010204027F4141417FFEFDFBF71027D0
:10023E00E80364000A000100001000011000010034
:10024E00000103070F1F3F7FFF00000000000000AA
:10025E0000000000000020494E20544845204E4129
:10026E004D45204F4620474F44002020202020207F
:10027E0057454C434F4D452100454E544552204E57
:10028E00554D4245523A00312E2053686F7720204B
:10029E005061747465726E00322E2045646974204C
:1002AE00205061747465726E00332E2053686F7720
:1002BE00202054656D7072617475726500342E2045
:1002CE0041626F7574204D45210054454D50524189
:1002DE00545552453A00424B00534D415254202042
:1002EE00204C49474854202020414E440054454D4F
:1002FE0050524154555245202050524F4A45435476
:10030E00004D4F4841414D4144204A415641442001
:10031E00204144454C0039363231303130303432A0
:10032E00003C3C003E3E004F4B0031003300340099
:10033E0035003600370038005061747465726E20D7
:10034E002564204170706C6965642021004544006D
:10035E0020202020202020202000505245535320C2
:10036E00454400544F204544495400555345204BB5
:10037E0045595300535600424C4F434B0053415680
:10038E0045442021000001002D4E414E00494E46AD
:10039E0000000100020058020A0004005A02140074
:1003AE00600264020F00740278020E00830287025C
:1003BE001100910295021100A202A6021400B302CE
:1003CE00B7020D00C702CB020C00D402D802030004
:1003DE00E002E4021400E302E7021400F702FB025B
:1003EE0015000B030F030B002003240303002B0344
:1003FE00E40208002E039E02030036032F030300BF
:10040E003903320303003C03350303003F03E402C8
:10041E00020042033803020044032D030200460388
:10042E003A03020048033C0302004A033E03020063
:10043E004C03400302004E034203020050034403E8
:10044E00080052039E0203005A032F0303005D03AC
:10045E003203030060035B0303006303E402020044
:10046E0066033803020068032D0302006A033A0391
:10047E0002006C033C0302006E033E030200700395
:10048E0040030200720342030200740344030A0095
:10049E0076035E030A0080035E030A008A035E038E
:1004AE000A0094035E0309009E0368030800A70375
:1004BE0071030A00AF035E030A00B9035E030A006C
:1004CE00C3035E030A00CD035E030300D7032F03AD
:1004DE000300DA0332030A00DD035E030A00E703BA
:1004EE005E030A00F1035E030A00FB035E030900CC
:1004FE000504790308000E04710303001604820339
:10050E000A0019045E030A0023045E030A002D0488
:10051E005E030A0037045E030600410485030800EB
:10052E0047048B030A004F045E030A0059045E035E
:10053E000A0063045E030A006D045E03090077047B
:10054E006803080080047103030088045B03010044
:10055E00BF0494030000F894EE27ECBBF1E0FBBF60
:10056E00EBBFE5BF8DE0A2E0BB27ED938A95E9F7DF
:10057E0080E098E0A0E6ED930197E9F7E0EAF3E07A
:10058E0085919591009761F0A591B5910590159083
:10059E00BF01F00105900D920197E1F7FB01F0CF3D
:1005AE00EFE5EDBFE8E0EEBFC0E6D2E00C94150437
:1005BE00F89478941895F894789418951895EA9379
:1005CE00FA93EFB7EA93882061F08A94E92D939419
:1005DE00F0E0E155FB4FE081ECB9E8E0E91509F4F4
:1005EE009924E991EFBFF991E9911895AA93E8E062
:1005FE00E815E9F3F894882011F45D990DC0E42D07
:10060E004394F0E0E155FB4FA881A083E8E0E415A8
:10061E0009F44424839402C0E881ECB978942196BD
:10062E0008950A921A92FA926A937A938A939A93F7
:10063E00AA93BA93EA93FA93EFB7EA930E947317C9
:10064E00F8940BB13CB1E02FEC7189F4EB2DB3941F
:10065E00F0E0E954FB4F3083E8E0EB1509F4BB24DE
:10066E00D394E8E0ED1519F4DD24689420F8C3D096
:10067E001E2FF301309731F41A3719F4E1E05E2E94
:10068E009EC004C0E130A0E0FA0749F41A3519F40F
:10069E00E1E0E51509F001C092C0552490C0E230AA
:1006AE00A0E0FA0779F4E1E0E51549F4113310F012
:1006BE00173308F003C01093A80481C002C055245C
:1006CE007EC004C0E330A0E0FA0779F4E1E0E5155E
:1006DE0049F4103310F01A3308F003C01093A90434
:1006EE006EC002C055246BC004C0E430A0E0FA070F
:1006FE0049F4E1E0E51521F4EEE2E093AA045FC0CF
:10070E0055245DC0E530A0E0FA0779F4E1E0E51587
:10071E0049F4103310F01A3308F003C01093AB04F1
:10072E004EC002C055244BC004C0E630A0E0FA070C
:10073E0079F4E1E0E51549F4103310F01A3308F0BE
:10074E0003C01093AC043BC002C0552438C004C093
:10075E00E730A0E0FA0759F4103219F4E1E0E5159C
:10076E0009F003C01093AD042AC0552428C0E83008
:10077E00A0E0FA0759F4133419F4E1E0E51509F095
:10078E0003C01093AE041BC0552419C0E930A0E07D
:10079E00FA0749F4183519F4E1E0E51509F001C03E
:1007AE000EC055240CC0EA30A0E0FA0741F4183709
:1007BE0019F4E1E0E51509F001C001C05524F3017B
:1007CE0031963F01EAE0F0E06E167F0614F06624E3
:1007DE00772478940E947A172496E991EFBFF991C5
:1007EE00E991B991A9919991899179916991F9902C
:1007FE001990099018951A93DD20F1F3EA2DA39420
:10080E00F0E0E954FB4F1081E8E0EA1509F4AA2460
:10081E00F894DA947894E12F199108952697EFE0E1
:10082E00EABBEBBBE0E0E7BBE4E8E8BBE0E0E4BB3F
:10083E00E5BBE1BBE0EFE2BBE0E0E3BFE2BFECBF54
:10084E00EFBDEEBDEDBDECBDE7BDE6BDEBBDEABD5A
:10085E00E9BDE8BDE2BDE5BDE4BDE3BDE9BFEBB773
:10086E00EBBFEAE0E5BFE0E0E4BFE0EEEABFE0E0C8
:10087E00EBB9E8EDEAB9E6E8E0BDE0E0E0BDE3E3C0
:10088E00E9B9E0E8E8B9E0E0E0BFE6B9EDB9E6BF06
:10089E00E4E5F0E0E883F983E0E0EA83EB83EC83C0
:1008AE00ED83DE010E94DB0B0E94400CE2E0EA9336
:1008BE00EA93ECE7EA93ECE30E948514E5E0EA9311
:1008CE00EFE0EA93A0E6B2E00E948914E9E1EA9330
:1008DE00A4E7B2E00E94DC0F00E010E00A30E0E096
:1008EE001E07ACF4AAE0B0E00E94C816AAE00A0205
:1008FE00F001DF01E65FEA93E8E2EA93FD01EC5EC8
:10090E00EA93A2E30E94D7130F5F1F4FE7CF0E9417
:10091E00400C789402D0FECFFFCF0E948E14E6E1F9
:10092E00EA93E1E0EA93E5E5EA93E0E10E949314AD
:10093E00E8E1EA93E5E0EA93A3E8B2E00E94DC0F77
:10094E00E2E0EA93E4E1EA93ECE7EA93E7E30E945C
:10095E009314E5E0EA93E9E1EA93A1E9B2E00E949B
:10096E008914E3E2EA93A2EAB2E00E948914EDE26E
:10097E00EA93A3EBB2E00E948914E7E3EA93A7ECB3
:10098E00B2E00E94DC0F1DD08F01309711F4BBD066
:10099E0017C0E130A0E0FA0721F40E94400CEBD121
:1009AE000FC0E230A0E0FA0721F40E94400C55D0AF
:1009BE0007C0E330A0E0FA0719F40E94400C73D090
:1009CE0070C20E9473170E94971400E010E004306A
:1009DE00E0E01E077CF5F801E85CFD4F04900BBAD1
:1009EE008BE18A95F1F7CC9907C020E030E0CC9BE3
:1009FE00FECF0E949C142DC0CD9907C021E030E09F
:100A0E00CD9BFECF0E949C1424C0CE9907C022E03D
:100A1E0030E0CE9BFECF0E949C141BC0CF9907C026
:100A2E0023E030E0CF9BFECF0E949C1412C00F5FDC
:100A3E001F4FCDCFB29905C0B29BFECFE0E1F0E0E3
:100A4E0008C0B79905C0B79BFECFE1E1F0E001C049
:100A5E00BCCF0E947A17249608950E94A214EEE14C
:100A6E00EA93EAE0EA93A4EDB2E00E94DC0FEBE237
:100A7E00EA93E4E1EA93A8EAB4E00E94DC0FEEE325
:100A8E00EA93EDE2EA93AFE00E948D13E9E3EA9375
:100A9E00EAE2EA93A0EEB2E00E94DC0FB79BFECF33
:100AAE00B799FECF2DC00E94A214E5E0EA93E8E0CC
:100ABE00EA93A3EEB2E00E948914E5E1EA93A7EF70
:100ACE00B2E00E948914E1E2EA93ABE0B3E00E9447
:100ADE00DC0FEDE2EA93EFE2EA93A0E2B3E00E94CC
:100AEE00DC0FEEE10E94A914E9E1EA93EFE2EA934A
:100AFE00ABE2B3E00E94DC0FB79BFECFB799FECFFF
:100B0E000E94400C089564970E948E140E94AF14A8
:100B1E00E6E4EA93E5E0EA93AEE2B3E00E94B914AC
:100B2E00A6E3B3E00E94C714A9E3B3E00E94DC0F72
:100B3E00E4E50E94A9140E94D514ACE3B3E00E9430
:100B4E00DC0FEEE60E94A914E9E6EA93E0E3EA93ED
:100B5E00AFE3B3E00E94DC0FF801309729F40E9456
:100B6E00DA14A2E4B3E03EC0E130A0E0FA0729F4C3
:100B7E000E94DA14A4E4B3E035C0E230A0E0FA0734
:100B8E0029F40E94DA14A6E4B3E02CC0E330A0E00E
:100B9E00FA0729F40E94DA14A8E4B3E023C0E43083
:100BAE00A0E0FA0729F40E94DA14AAE4B3E01AC00E
:100BBE00E530A0E0FA0729F40E94DA14ACE4B3E0C1
:100BCE0011C0E630A0E0FA0729F40E94DA14AEE470
:100BDE00B3E008C0E730A0E0FA0741F40E94DA144F
:100BEE00A0E5B3E00E94DC0FD80186D0B79903C010
:100BFE00B79BFECF47C086990AC0869BFECF0F5F7C
:100C0E001F4F0830E0E01E0714F000E010E084995A
:100C1E0008C0849BFECF01501040112312F407E050
:100C2E0010E0B2992EC0B29BFECF0E94400CE5E0C0
:100C3E00EA93E4E1EA93E6E7EA93E2E10E9485149F
:100C4E00FE013296FA93EA93E6E4F3E0FA93EA931E
:100C5E00F80131960E94F8160E944B1784E00E940C
:100C6E002A0B2896E7E0EA93E9E1EA93DE0114966F
:100C7E000E94DC0FD8013ED3ADE7B0E00E94C8164B
:100C8E0001C06ACF0E94400C1981088166960895B2
:100C9E002297E0E0E883E9830E9471170E9497147F
:100CAE0040E050E00E94400C00E010E00031E0E037
:100CBE001E070CF520E030E02031E0E03E078CF41A
:100CCE00EE81EF5FEA93E42FEF5FEA93E3E0EA93BE
:100CDE00EA93A0E00E943A114C5F5F4F2F5F3F4FA7
:100CEE00EBCFEE81FF813496EE83FF8340E050E040
:100CFE000F5F1F4FDBCF3BC0BA93AA930E947117B1
:100D0E0000E010E00031E0E01E078CF550E05230BC
:100D1E0058F520E030E02830E0E03E071CF5E22FE9
:100D2E00A1E00E94DA164E2FF8010E94DF14DF01B7
:100D3E00EE81FF81EE0FFF1FAE0FBF1FEE27A50F37
:100D4E00BE1F0E945017E4234E1729F40E94E4148C
:100D5E000E94E60E04C00E94E4140E94EE0E2F5F65
:100D6E003F4FD9CF5F5FD3CF0F5F1F4FCBCF0E94C7
:100D7E007817289608950E948E140E94AF14E6E408
:100D8E00EA93E5E0EA93A2E5B3E00E94B914AAE57E
:100D9E00B3E00E94C714ADE5B3E00E94DC0FE4E5BA
:100DAE000E94A9140E94D514A0E6B3E00E94DC0FA5
:100DBE00EEE60E94A914E9E6EA93E0E3EA93A3E6DD
:100DCE00B3E00E94DC0FF801309729F40E94DA1488
:100DDE00A6E6B3E03EC0E130A0E0FA0729F40E9497
:100DEE00DA14A8E6B3E035C0E230A0E0FA0729F441
:100DFE000E94DA14AAE6B3E02CC0E330A0E0FA07B2
:100E0E0029F40E94DA14ACE6B3E023C0E430A0E08B
:100E1E00FA0729F40E94DA14AEE6B3E01AC0E53000
:100E2E00A0E0FA0729F40E94DA14A0E7B3E011C09B
:100E3E00E630A0E0FA0729F40E94DA14A2E7B3E044
:100E4E0008C0E730A0E0FA0741F40E94DA14A4E7E4
:100E5E00B3E00E94DC0FD8014FDFB79903C0B79BF8
:100E6E00FECF1DC0B29904C0B29BFECFD8011CD0DC
:100E7E0086990AC0869BFECF0F5F1F4F0830E0E0B9
:100E8E001E0714F000E010E0849908C0849BFECF8A
:100E9E0001501040112312F407E010E094CF0E948D
:100EAE00400C099119910895BA93AA930E948E1439
:100EBE000E941015A6E7B3E00E941515E4E1EA932F
:100ECE00A0E8B3E00E941515E9E1EA93AAE8B3E0C1
:100EDE000E941515EEE1EA93A4E9B3E00E941A15FB
:100EEE00E4E1EA93AEE9B3E00E941F15EEE1EA9366
:100EFE00A7EAB3E00E94DC0F0E942415A0E1EA02EB
:100F0E000A920E942A15A0E1EA020A92E1E1EA930E
:100F1E00EA93A0E00E943A1187990EC0879BFECFFC
:100F2E00D80175D00C30E0E01E0724F00E94241585
:100F3E008F0102C00C5F1F4F859910C0859BFECF9D
:100F4E00D80165D00430E0E01E0734F4D8010E94C9
:100F5E0030153C968F0102C004501040869912C085
:100F6E00869BFECFD80153D0D80111960E94301522
:100F7E00309731F40E942A150E94EE168F0102C09E
:100F8E000F5F1F4F84990EC0849BFECFD8013FD0B8
:100F9E00D8010E943015309719F40D5F1F4F02C013
:100FAE0001501040B79905C0B79BFECFD8012FD086
:100FBE000AC0B29907C0B29BFECF1A930A93AC81B6
:100FCE00BD817DD099CF0E941015AFEAB3E00E948B
:100FDE001515E4E1EA93A9EBB3E00E941515E9E1DA
:100FEE00EA93A3ECB3E00E941515EEE1EA93ADECA3
:100FFE00B3E00E94B914A7EDB3E00E94C714AAEDA6
:10100E00B3E00E94DC0F198108810C94640CBA9332
:10101E00AA930E948E1400E010E00031E0E01E075B
:10102E0054F40E9435150E943F15AE2F0E94EE0E0D
:10103E000F5F1F4FF2CF00E010E00031E0E01E071F
:10104E004CF40E943515E05FEA930E944B150F5F3A
:10105E001F4FF3CF00E110E0002400160106D4F478
:10106E00AA81BB811C974CF40E9435150E943F1536
:10107E00E05FAE2F0E94EE0E0AC00E9435150E9450
:10108E003F15E15FAE2F0E94EE0E0350104001504F
:10109E001040E2CF00E110E00024001601065CF4DF
:1010AE00EA81FB810E945815EA020A920E944B15B2
:1010BE0001501040F1CF198108810C94640CBA9341
:1010CE00AA9322970E9471170E9497140E941015DE
:1010DE00ADEDB3E00E941515E4E1EA93A7EEB3E09F
:1010EE000E941515E9E1EA93A1EFB3E00E941515F0
:1010FE00EEE1EA93ABEFB3E00E941A15E3E1EA9357
:10110E00A5E0B4E00E941F15EDE1EA93AEE0B4E075
:10111E000E94DC0F0E94D514A6E1B4E00E94DC0F01
:10112E000E945E150E946115AE0FBF1F0E945017E0
:10113E00EE830E945E150E946115AE0FBF1F1196C1
:10114E000E945017EF833DDC8F010830E0E01E0750
:10115E0044F5E02FA1E00E94DA165E2F20E030E089
:10116E000E946715E5235E1759F40E946D150E94C3
:10117E0070150E9475150E9485150E94EE0E0AC00C
:10118E000E946D150E9470150E9475150E9485159E
:10119E000E94E60EF9010E948A15E527D001EC9314
:1011AE007AC0E0E1F0E0E017F10709F047C00E94D5
:1011BE005E150E946115AE0FBF1FEE810E945C1777
:1011CE000E945E150E946115AE0FBF1F1196EF8132
:1011DE000E945C170E941015A9E1B4E00E9415153B
:1011EE00E4E1EA93A3E2B4E00E941515E9E1EA9383
:1011FE00ADE2B4E00E941515EEE1EA93A7E3B4E088
:10120E000E94DC0FE2E5EA93E4E1EA93A1E4B4E0A4
:10121E000E94DC0FEEE4EA93EEE1EA93A7E4B4E079
:10122E000E94DC0FE885F985FA93EA93AC85BD85BB
:10123E0070D0A4E6B0E00E94C8162EC0E1E1F0E046
:10124E00E017F10749F1E02FE850A1E00E94DA160D
:10125E005E2F21E030E00E946715E5235E1759F4FA
:10126E000E946D150E9470150E9475150E948515BD
:10127E000E94EE0E0AC00E946D150E9470150E940B
:10128E0075150E9485150E94E60EF9010E948A15B9
:10129E00E527D001EC9357CF0E941015AFE4B4E0D0
:1012AE000E941515E4E1EA93A9E5B4E00E94151534
:1012BE00E9E1EA93A3E6B4E00E941515EEE1EA93A4
:1012CE00ADE6B4E00E941A15E3E1EA93A7E7B4E0B5
:1012DE000E941F15EDE1EA93A0E8B4E00E94DC0F36
:1012EE000E94D514A8E8B4E00E94DC0F0E94781783
:1012FE002C9608950E9490150FE8EA81E295E07F02
:10130E001E2F1027A12F0E94FD02198108810C9417
:10131E00640C0E94901500E0EC81E295E07F1E2F98
:10132E0001271A810127A02F0E949515DF01EC815C
:10133E00FD81EE0FFF1FAE0FBF1F0E945017AE2F85
:10134E000E949515DF01EC81FD81EE0FFF1FAE0FA0
:10135E00BF1F11960E945017AE2F0E94FD021981D9
:10136E0008810C94DD0C0E949015AA81BB81129607
:10137E000E944317309759F1AA81BB8114960E949F
:10138E0043178F01309761F00230E0E01E0798F0AE
:10139E00F80131978F01AA81BB811496ED93FC93CE
:1013AE00AA81BB811296ED91FD913196FE93EE933B
:1013BE003197AC81A083AA81BB810E944317FF2382
:1013CE002AF0ED91FD913196FE93EE9306C0AA811F
:1013DE00BB81EFEFFFEFED93FC930C94860CBA9369
:1013EE00AA9326970E94711710E0AC85BD85E0E0A8
:1013FE00F0E0ED93FC93EA89FB893196EA8BFB8B47
:10140E003197E4912E2FE03009F415C1E12FE03031
:10141E0039F4253211F411E002C00E949E150AC162
:10142E00E130A9F4253219F40E949E1502C112E092
:10143E0040E000E02D3211F401E0FCC02B3211F43B
:10144E004BE2F8C0203211F440E2F4C002C0E230A8
:10145E0039F450E013E0203311F40068EBC003C000
:10146E00E33009F0E7C0203310F02A3308F007C04C
:10147E00AAE05A9F502DE22FE0535E0FDBC0E22F01
:10148E00E33649F40E94A515E889F989A481AA9347
:10149E000E94AB15CEC0E33741F40E94A5150E9401
:1014AE00B1150E94FB131E2F0AC0E03761F40E9493
:1014BE00A5150E94B1150E9407141E2F0860026028
:1014CE000F7730E034C0E43611F0E93611F40460E1
:1014DE0002C0E53731F4ECE3F2E0EE83FF8315E072
:1014EE000CC0E83511F4086003C0E83709F0A1C05C
:1014FE00E6E4F2E0EE83FF8314E002FF14C00E94E4
:10150E00A5150E94BB15AB85AA233AF4EA85FB8587
:10151E000E94D616EA87FB874DE2403011F01F5F1E
:10152E0001C00B7F04C00E94A5150E94BB1500FDD3
:10153E0011C0151778F407FF08C002FF04C00B7F17
:10154E00242F115001C020E301C020E20E949E15FD
:10155E005150EFCF312F01FF17C03030A1F003FFF4
:10156E0006C0EE81FF812591EE83FF8305C0AE811B
:10157E00BF812D91AE83BF830E949E15503009F01E
:10158E0051503150EACF4BC020E3EE81FF810E94D3
:10159E004717E887F987EE81FF813296EE83FF8346
:1015AE00E885F985AA85BB85AE17BF0750F02F5F7A
:1015BE00A885B985EA85FB85EA1BFB0BEA87FB87C5
:1015CE00EFCF2A3328F003FF02C0295F01C0295D47
:1015DE0004FD1AC0213320F4A885B985119709F4AA
:1015EE0009C0531710F000FF01C013C020E207FF1F
:1015FE000BC020E3006102FF07C00B7F4A930E94DD
:10160E00AB15503009F051500E949E15503009F024
:10161E0051503150A885B985129708F0B5CF00FF0B
:10162E0008C0503031F05150E0E2EA930E94AB1501
:10163E00F8CF10E0E0CEAC85BD850E9443170E9426
:10164E00781764960895FF92F82E26970E947317C6
:10165E000E94C315309719F4EFEFFFEF23C0DE01A0
:10166E0016960E94D2168D010E94C315EE83FF833B
:10167E00E0E0E887E987DE011A960E94D2160E9402
:10168E004317FA93EA931A930A93EAEBF9E0FA9363
:10169E00EA93DE011A96A3DE9F01AE81BF81E0E0E0
:1016AE00EC93F9010E947A172A96FF900895000094
:1016BE00C49A00000895C498C598C69808951A93C0
:1016CE00F6DF13B3C498E12F19910895AA931A93D4
:1016DE00E0E0E4BBC39AC198E981EF5F1E2F10FFD3
:1016EE0002C0C59A01C0C59811FF02C0C69A01C0BA
:1016FE00C698E5DFE078E9F718811DC1AA93A981A4
:10170E00E5DF0E94CA1517C1E091C404EA93E09187
:10171E00C304EF73E064AE2FF1DFE091C404EA93EB
:10172E00E091C504E86BAE2FE9DF0895AA93E98135
:10173E00E093C304E295EF70E695E695E093C4045A
:10174E00E881E093C504E0DFF6C0A091C304AF5F6B
:10175E00A093C304A03818F0E0E0E093C304E09136
:10176E00C304EF7331F4E091C304EA93A091C5046E
:10177E00DDDF0895AA93A091C404A8DFC19A0E9448
:10178E00CA1521960895A091C404A0DFE0E0E4BB41
:10179E00C39AC19A94DF08950E94D3150E94D8155A
:1017AE00F2DFB2DFF0DFC7C0BA93AA931A93BC9AE6
:1017BE00BB9AB99AB89AC09ABD9ABE9A7CDFC09865
:1017CE00A4E6B0E00E94C816C09A10E0123040F4B1
:1017DE001A93AFE393DF1A931395A0EC8FDFF6CF36
:1017EE00E1E0E0938B04E0E0E0938C04E981FA8180
:1017FE003097A9F0A981BA810E944317E0938F0414
:10180E00F093900412960E944317E093A404F09371
:10181E00A504A981BA8114960E9443170AC0E0E07C
:10182E00F0E0E0938F04F0939004E093A404F0931F
:10183E00A504E093A604F093A704E1E0E0939104DD
:10184E00E0939204E0939304EFEFE0939404E1E0CD
:10185E00E0939B04ECE9F4E0FA93EA93EFEFEA935A
:10186E00A8E0B0E00E94EB1304D0E1E018812396CB
:10187E0008950E94731700E030E0E0918C04E03090
:10188E0009F00FEF383078F4E0E0EA93A32F3F5FD2
:10189E004DDF10E0A12F1F5FA03820F4A02F0E9473
:1018AE00DE15F8CFEFCFE0E0EA93A0E03FDFE0E017
:1018BE00EA93A0E0AAD30E947A1724960895AA93D9
:1018CE001A930A93AC81A03818F4AB81A03408F0B7
:1018DE0016C0EC81EA93AC815FDF1E2F15DFEB8122
:1018EE00E770A1E00E94DA160E2FEA81E03011F0C7
:1018FE00102B03C0E02FE0951E23A12F3BDF198193
:10190E00088125960895AA93A981A03818F4A88174
:10191E00A03410F0E0E00FC0E981EA93A9813CDF2A
:10192E001E2EE881E770A1E00E94DA16E12111F087
:10193E00E1E001C0E0E022960895AA931A93ED81AA
:10194E00EA93AD8129DF1E2FDFDEE981E73011F04A
:10195E00E83039F4EB81EA93AA810E941F14EB83DD
:10196E0008C0E33021F4EB81E095EB8302C0E03058
:10197E0021F4EA81E0951E2302C0E23029F4EA81C7
:10198E00AB81EA231E2B0EC0E13029F4EA81AB8134
:10199E00EA231E2707C0E43029F4EA81E095AB81E3
:1019AE00EA2B1E23A12F0E94DE151881269608957C
:1019BE00AA9323970E947117A889A03848F4AF857F
:1019CE00A03430F4AE85A03019F0AD85A03009F406
:1019DE00C8C1EE85E887A889BB27EE85F0E0AE0F7B
:1019EE00BF1FA138E0E0BE0720F0A889E0E8EA1B9F
:1019FE00EE872D85AF85BB27ED85F0E0AE0FBF1FBF
:101A0E00A134E0E0BE0720F0AF85E0E4EA1BED87ED
:101A1E00A985A63009F05BC0EC85E13009F4A1C1BF
:101A2E00E33039F4E091A604F091A704309709F45D
:101A3E0098C10885ED85E695E695E6953E2FE22F51
:101A4E00E77019F4AD852A17E9F0A02FBB27E32F15
:101A5E00F0E00E94FD16AA85BB850E94E215269530
:101A6E0026952695532F5F935F5FE22FAF91EA176E
:101A7E0048F0102FE12F1150E03019F00E94E715B9
:101A8E00F9CFF1CFAE850A1711F1EE85AA85BB8588
:101A9E00F0E00E94E215ED85E77009F03F5F20E06F
:101AAE002F932F5FE32FAF91AE1788F41E851F93F0
:101ABE001F5FE02FAF91AE1718F40E94E715F7CF16
:101ACE00EE85AE81BF81F0E00E94E215E9CFEF8591
:101ADE00E7703E2FED85E03009F443C1EA85FB85C2
:101AEE00EE83FF8310E00889303009F065C0AD85C4
:101AFE00A83008F45CC0E985E03011F0E33009F459
:101B0E0002C0E73009F402C0E83009F402C0E63042
:101B1E0009F402C0E93009F402C0EA3021F40A9354
:101B2E00E8890E94D8151F931F5FEE85AF91AE17FF
:101B3E00B8F5A985A63061F426DEE6DD0E94F4151F
:101B4E00FA93EA9320DEAE2F0E946614FEDD27C0C4
:101B5E00E985E93011F450E00EC0EA3011F45FEF80
:101B6E000AC00E94F4150E94FD155E2FE985E7302C
:101B7E0011F0E83021F40E9403165E2F06C0E33008
:101B8E0011F4509502C0E03021F4A52F0E94DE150D
:101B9E0006C00E940716EFEFEA93AD85CEDEC3CFE7
:101BAE00EF85E85FEF87ED85E850ED87D1C05D8565
:101BBE0020E0E0E0ED877AC0E32FAD85AE0FA930CF
:101BCE0020F42D85E0E0ED8703C0E8E0E31B2E2F27
:101BDE003A93A22F0E9414144E2FE985E630F1F4A9
:101BEE001F931F5FEE85AF91AE17B8F40E940D16CE
:101BFE00AE2FE32F0E94E2160E941416E32FA42F9D
:101C0E000E94E216E095E1215E2B0E94F415FA93F4
:101C1E00EA93A52F0E946614E3CF2CC0E93011F48D
:101C2E0050E003C0EA30A9F45FEF0E940316AE2F16
:101C3E00E32F0E94DA165E2F1F931F5FEE85AF9182
:101C4E00AE1730F40E9407164A93A0E076DEF4CF6A
:101C5E0011C01F931F5FEE85AF91AE1758F40E940F
:101C6E001F16AE2FE32F0E94DA16EA934A93AD8524
:101C7E0064DEEFCFED85E03009F473C0AD85A8309A
:101C8E0028F4ED85E21B5E2FE0E003C0532FED85B7
:101C9E00E850ED8710E0EF85E85FEF87E8E0E31BA3
:101CAE002E2F0889EA85FB85EE83FF83E52FF0E072
:101CBE00E25BFD4F4491E985E630F1F41F931F5F1F
:101CCE00EE85AF91AE17B8F40E940D16AE2FE22F2F
:101CDE000E94DA160E941416E22FA42F0E94DA1622
:101CEE00E095E1215E2B0E94F415FA93EA93A52F5D
:101CFE000E946614E3CF2CC0E93011F450E003C00B
:101D0E00EA30A9F45FEF0E940316AE2FE22F0E9475
:101D1E00E2165E2F1F931F5FEE85AF91AE1730F464
:101D2E000E9407164A93A0E008DEF4CF11C01F935D
:101D3E001F5FEE85AF91AE1758F40E941F16AE2F9F
:101D4E00E22F0E94E216EA934A93AD85F6DDEFCFBD
:101D5E00E885AA85BB85F0E0EA0FFB1FEA87FB87C3
:101D6E00B9CE0E947817619608950E942C1624F021
:101D7E00E0E0F0E00C941D14A881B981A038E0E0F9
:101D8E00BE0724F0EFE7F0E00C941D14E881F98112
:101D9E000C941D140E942C1624F0E0E0F0E00C943C
:101DAE001D14A881B981A034E0E0BE0724F0EFE352
:101DBE00F0E00C941D14E881F9810C941D140E941E
:101DCE00D315EA93A0918B047ADD0C941D140E9416
:101DDE00D315EA93A0918C0472DD0C941D14BA9362
:101DEE00AA9323970E9433168F01002E012A19F40D
:101DFE00E0E0F0E05FC00E943A160F820E943A16B1
:101E0E000E820E943A160886EB85A885EA1718F40A
:101E1E00E0E0F0E04FC0F8010F5F1F4F5491A8852E
:101E2E00BB27EE27A50FBE1FEB85F0E0EA17FB07D9
:101E3E0018F0E0E0F0E03EC0EE81E695E695E6951E
:101E4E004E2FEE81E77009F04F5FEF81E030A1F089
:101E5E00A985BA85EC93A885EB85EA1BF0E0DF0136
:101E6E00EF81F0E00E94FD16DF01E42FF0E00E940A
:101E7E00FD16E00FF11F1EC09801E52FF0E00E0FCA
:101E8E001F1FA885AF5FA887A150EB85AE1760F422
:101E9E00F9012F5F3F4FA491B0E0E42FF0E00E94D4
:101EAE00FD160E0F1F1FEDCFF901E491A985BA851E
:101EBE00EC93F8010E9478172C960895E0E0E093D9
:101ECE008D04A0918E04BB270E943F16F0E0AE0F4A
:101EDE00BF1FE0919204F0E0AE0FBF1F5BDFE093F7
:101EEE008E040895AA9321970E943316309709F411
:101EFE0057C0AF81AA3009F44FC0EF81EA93DE01DB
:101F0E0017966DDFAF01309719F40E94781746C40B
:101F1E00E0919104AE81EA0F3E2FA0918D04BB2774
:101F2E000E9446160138E0E01E0718F0032F112715
:101F3E00C5DFE0918D04EA93E0918E04EA93E88583
:101F4E00EA930E943F16EA93E1E0EA935A934A938A
:101F5E00A7E02EDDE0918D04AE81EA0FEA93E091C9
:101F6E008E04EA93E0919104EA930E943F160E9438
:101F7E004B16E0918D04EA93A0918E040E943F16B9
:101F8E00EA0FEA933A93E09192040E944B16E0E82E
:101F9E00F0E0E017F10721F491DF0E947817FEC3FD
:101FAE0000938D040E947817F9C3BA93AA931A93DB
:101FBE00EC81EA93AC8129D0A981BA81ED91A983F4
:101FCE00BA831E2FE03019F0A12F8CDFF5CF1881C8
:101FDE000C94F913AA93EA81EA93EA81EA93E091C9
:101FEE009404AA81EA2319F0E0918B0402C0E091D7
:101FFE008C04AE2F64DCE881EE0FE883E03011F440
:10200E00E1E0E883E8810C946414AA93A981BB27CC
:10201E00ACDEE0938D04A881BB27BCDEE0938E047A
:10202E000C941D14AA932B970E947117AC89BB2791
:10203E009CDEEC8BAA89BB2798DEEA8BAB89BB278B
:10204E00A9DEEB8BA989BB27A5DEE98BEA89E09394
:10205E008D04E989E0938E04E1E0E887E989AB8994
:10206E00EA1771F51C89AA891A1731F41A93EC89AB
:10207E00EA93A1E0AFDFC8C0AA891A1730F4EA8943
:10208E00E11B0E2F41E050E006C0AA89E12FEA1BAA
:10209E000E2F4FEF5FEF3B89E0E0EE830E94551667
:1020AE0038F41A933A933395AA8594DFEF83F6CFDB
:1020BE00EF81E887140FE02F0150E03061F7A4C0E4
:1020CE00EA89AC89EA1739F53B89A9893A1730F4C0
:1020DE00E989E31B2E2FE1E0F0E006C0A989E32F8A
:1020EE00EA1B2E2FEFEFFFEFED87FE871C89E0E056
:1020FE00EE830E94551630F41A9313950E945D16C6
:10210E00EF83F7CFEF81E887ED853E0FE22F215069
:10211E00E03061F779C0E0E0EE830E94551608F0DA
:10212E0073C01C893B89E1E02E2F0E2FAA89BB2795
:10213E00EC89F0E0AE1BBF0BAD0155232AF40FEF77
:10214E00FA010E94D616AF01FA01EE0FFF1FEF87BC
:10215E00F88BA989BB27EB89F0E0AE1BBF0BAD87CF
:10216E00BE87AE85AA233AF42FEFED85FE850E9439
:10217E00D616ED87FE87ED85FE85EE0FFF1FEB87EA
:10218E00FC871A933A93A1E025DFE887E0E0E98720
:10219E00EA87AD85BE854A175B07BCF0100FEB854D
:1021AE00FC850E946116A985BA854A175B072CF437
:1021BE00320FAF85B8890E9468161A930E945D1679
:1021CE00E887EA89E11751F718C0320FEF85F889D1
:1021DE000E946116ED85FE85A985BA85EA17FB0773
:1021EE002CF4100FAB85BC850E9468161A930E94C2
:1021FE005D16E887E989E31741F7EB89EF5FEB8B13
:10220E00E989EF5FE98B89CF0E947817659608956B
:10221E00BA93AA930E947117EE81FF8113810181F7
:10222E003281AE81BF812C91011718F4502F012FEE
:10223E00152F231718F4522F232F352FE12FAE8190
:10224E00BF811396EC93E32FAE81BF811296EC9370
:10225E00E02FAE81BF811196EC93AE81BF812C939E
:10226E000E9478179BC2AA9322970E947117EA8543
:10227E00E03019F0E985E03009F45EC0E885AC8500
:10228E00EA0F1E2FE885AB85EA0F2E2FE0919304FF
:10229E00E150EF83EA85AC85AE0FA1503A2FA885A9
:1022AE00E32FEA1B0E2FAF813A1BE985AB85AE0FEC
:1022BE00A1504A2FA885E42FEA1B5E2FAF814A1B3F
:1022CE00E0919404EE83EFEFE09394041A93EC857F
:1022DE00EA93E02FE150EA93AE85A4DE0A932A93A7
:1022EE00EA85EA93A1E8B5D13A932A933A93A52FBA
:1022FE00A15098DE0A935A93EA85EA93A8E8A9D1E9
:10230E000A934A931A93A42F8DDE1A935A93EA8551
:10231E00EA93A4E89ED1EC85EA935A93EE85EA936C
:10232E00A22F80DE1A932A93EA85EA93A2E891D12E
:10233E00EE81E093940404C0EC85EA93AC853FDD16
:10234E000E9478172D960895BA93AA9323970E9408
:10235E007117ED85E887E0919304EF83E0918B048C
:10236E00EE83AA89BB27EF850E944616A989BB2753
:10237E00E8890E946F16E8890E94761671F0E8854A
:10238E00E078F1F4AD85BE85EAE5F0E00E947E16B8
:10239E001CF00E9487160CF413C0332312F00E9417
:1023AE008C16AF81A23020F02230E0E03E070CF414
:1023BE0007C00E94901621F40A93A22FA150FFDCB1
:1023CE00E885E878E83891F0E885E078C9F4AD85DD
:1023DE00BE85A25FBE4F0E9499163CF0AD85BE85AC
:1023EE00A25FBE4F0E949E160CF40AC00E94A31656
:1023FE0038F00E94AA1621F40A93A42FAF5FDFDCF7
:10240E00AA89BB27EF85F0E0AE1BBF0B8D01112310
:10241E000AF445C0E885E278E23891F0E885E07884
:10242E0011F5AD85BE85A65ABF4F0E9499163CF098
:10243E00AD85BE85A65ABF4F0E949E160CF413C0E2
:10244E00332312F00E948C16AF81A23020F022307E
:10245E00E0E03E070CF407C00E94901621F40A93A8
:10246E00A22FA150ACDCE885E478E43871F0E88561
:10247E00E078A9F4AD85BE85EEE0F1E00E947E160F
:10248E001CF00E9487160CF40AC00E94A31638F0A6
:10249E000E94AA1621F40A93A42FAF5F90DCAA899A
:1024AE00BB27E8890E944616A989BB27EF850E94A3
:1024BE006F16EF850E94761681F0E885E078F1F4CC
:1024CE00EB85FC85AD85BE85AE17BF072CF0E98583
:1024DE00FA85EA17FB070CF411C033237AF00E9439
:1024EE008C16AF81A23050F0E02FEE5F0E94B31633
:1024FE0029F4E02FEF5FEA93A22F61DCE885E878FC
:10250E00E83871F0E885E078C1F4AD85BE85E8E67F
:10251E00F1E00E947E161CF00E9487160CF40DC08E
:10252E000E94A31650F0E02FEE5F0E94BB1629F416
:10253E00E02FEF5FEA93A42F42DCAA89BB27E8893C
:10254E00F0E0AE1BBF0B8D0111230AF450C0E885DD
:10255E00E278E23871F0E885E07809F5AD85BE8560
:10256E00E4EBF0E00E947E161CF00E9487160CF43D
:10257E0016C03323A2F00E948C16AF81A23020F039
:10258E000230E0E01E070CF40AC0E02FE2500E9479
:10259E00B31629F4E02FE150EA93A22F10DCE88560
:1025AE00E478E43891F0E885E07809F5AD85BE85EC
:1025BE00AC54BF4F0E9499163CF0AD85BE85AC540D
:1025CE00BF4F0E949E160CF412C00E94A31620F05C
:1025DE000230E0E01E070CF40AC0E02FE2500E9429
:1025EE00BB1629F4E02FE150EA93A42FE8DB0E94FA
:1025FE00781763960895AA930E947317AF81BB272D
:10260E00ED81F0E0AE1BBF0BB0DB1E2FAF81BB2701
:10261E00ED81F0E0AE0FBF1FA8DB0E2FAE81BB2702
:10262E00EC81F0E0AE1BBF0BB5DB3E2FAE81BB27BE
:10263E00EC81F0E0AE0FBF1FADDB2E2F1A933A9355
:10264E000A93A32FEFDC1A932A930A93A22FEADCA4
:10265E00A3C0AA930E947117A985A03818F4A88563
:10266E00A03408F04FC050919304E52F5150E03044
:10267E0009F448C0EF81E03009F444C0EF81E15025
:10268E00EF83EF5F0E2FF0E0A5E0B0E0AE1BBF0BC7
:10269E00FD010E94EE160E94F3169F0110E0AE811E
:1026AE00A03459F40E94C3161A93A02FA4DF0E94DF
:1026BE00C3160A93A12F9FDF0FC00E94C3161A9351
:1026CE000A93EA85F0E0FA93EA93E0E0F0E0FA93F9
:1026DE00EA93A0E0B0E038DE1F5F33231AF4E12F57
:1026EE00F0E008C00150A12FBB27E02FF0E0AE1B99
:1026FE00BF0BFD01EE0FFF1F31962E0F3F1F01176F
:10270E0070F6B3CF0E9478172A960895AA93EA819D
:10271E00EA93EA81EA93EA81EA93AFE89ADF0C94AE
:10272E006414AA930E947317AF81A03818F4AE8177
:10273E00A03408F031C0ED81E03019F0EC81E030CA
:10274E0009F42AC03E81E32FAC81EA0FEC83EF81BE
:10275E00AD81EA0FED83EC813E17F0F4E31B2E2FD3
:10276E00293008F028E01F81ED811E1798F4E11B37
:10277E000E2F093008F008E01A933A930A932A9321
:10278E00E0E0EA93ECE9F4E0FA93EA93A8E010D9DA
:10279E00100FEACF320FDFCF0E947A1728960895D6
:1027AE00AA93DE0135DDEB81EA93EB81EA93AD81ED
:1027BE00EB81EA1BEF5FEA93AD81EB81EA1BEF5FE2
:1027CE00AE2FAFDF0C948314BA93AA93B981A8816C
:1027DE00109631F0FC81EB816A8161931197E9F7D4
:1027EE00EB81FC8125960895BA93AA93A991B9918C
:1027FE00EE27FF276D91662311F03196FBCF0895DA
:10280E00BA93AA93AA27BB27E991F99105900020C4
:10281E0011F01196FBCFFD010895AA93E881F0E027
:10282E00E25BFD4FA491E9810E94DA16229608958B
:10283E00AA931A93E981E73011F0EA3019F4109156
:10284E008B0409C0E93019F410918C0404C0E830EF
:10285E00A1F410919B04E0918C04E03049F010300B
:10286E0019F0EFEF188129C0EA81E095188125C093
:10287E00103019F4E0E0188120C0EA8118811DC0E3
:10288E00BA93AA93EA81E13021F4E881F981E491C7
:10289E0014C0E23029F4A881B9810E9450170DC0EE
:1028AE00E33041F4A881B981E091A404F091A5042C
:1028BE00099503C0A881B981EC9123960895AA9336
:1028CE00EB81E03029F4E881A981BA81EC9314C040
:1028DE00E23031F4E881A981BA810E945C170CC004
:1028EE00E33051F4E981FA81FA93EA93AA81E091F7
:1028FE00A604F091A704099524960895EA93A5E0FD
:10290E000C943A110E94DC0FE5E0EA9308951A93B5
:10291E000A9300E010E00895EA93A2E00C943A11B5
:10292E0000E010E020E030E00895F8010E94EE167D
:10293E00E20FF31F0895E1E0EA93EA93EEE7EA93DC
:10294E00EEE3DCCFEA93E2E3EA93AAE00C948D1374
:10295E000E944F06E4E4EA93E0E0EA93ECE3EA93A4
:10296E00E0E4DACF0E94DC0FE4E5EA93E9E1EA93D2
:10297E00AAE00E948D13EEE4EA93E6E1EA9308954D
:10298E000E94DC0FEEE6EA93E9E1EA93AAE00E94E8
:10299E008D13EAE6EA93E6E1EA930895EEE4EA930C
:1029AE00E0E3EA930895E5E7EA93E5E0EA93089514
:1029BE000E94EA16E050F0400895F901A3E0B0E05D
:1029CE000E942B17EE0FEE0F6E2FF801A3E0B0E072
:1029DE000E942B17A0E1EA02F001E60FEE5FEA93E8
:1029EE00E52FEE0FEE0FEE0F6E2FD901E4E0F0E0C3
:1029FE000E941817EE0FEE0F6E0FD801E4E0F0E014
:102A0E000E941817A0E1EA02F001A62FAE0FAE5FEA
:102A1E000895E6E4EA93EFE0EA9308950E94DC0F4E
:102A2E00E6E4EA9308950E94DC0FEAE4EA9308953F
:102A3E000E94DC0FEDE4EA930895F801A3E0B0E004
:102A4E000E942B170895D801E4E0F0E00E941817B9
:102A5E000895E4E0F0E00E941D170895EA81FB81DD
:102A6E00A3E0B0E00E942B17A0E1EA02F001089566
:102A7E00E00FEA93AB81BC81E4E0F0E00E9418170E
:102A8E00A0E1EA02F0010895AB81BC81E4E0F0E040
:102A9E000E941817A0E1EA02F001E00FAE2F0C948D
:102AAE00EE0EA3E0B0E00E942B17A0E10895EA8598
:102ABE00FB857ECFDF01E885F985EE0FFF1F0895B8
:102ACE00DE011696A20FB31FEC910895EA85FB85E1
:102ADE00E8CFEA02F001EE5F0E2EAFCFEE0FEE0F53
:102AEE00E00DEA93AB85BC85E4E0F0E00E94181798
:102AFE00A0E1EA02F001EE5F4E2FA5CFEE0FEE0F32
:102B0E00A42FAE0F0895DE011696EA0FFB1F0F01DC
:102B1E00D7CFBA93AA931A930A9308950E94FD02EF
:102B2E0088EC90E00197F1F7EA81FB8141CF2A937F
:102B3E00AD85BE85EF85F88909950895E889F989EF
:102B4E003497E88BF98B0895AD85BE85EF85F889AE
:102B5E0009950895A889B98914960E944317EE83A2
:102B6E00FF83AE81BF810895A889B98914960E940A
:102B7E004317EA87FB870895DE011C960E94D21642
:102B8E000E9443170895C398EFEFE4BBE881E5BBBD
:102B9E000E945E0B0C94620BAA93E981EA93E98181
:102BAE000895E695E695E695AE2F0C949D0B0E9442
:102BBE00C10B0C94AC0BEA0FFB1FEE83FF83089541
:102BCE00EC85EA93EF81F8853196EF83F88731979C
:102BDE00FA93EA93A0E00C946614EC85EA93EF81E5
:102BEE00F8853196EF83F887319708956627772712
:102BFE00DF01CB010C9447145A93AA850C941F1431
:102C0E000A930395E889EA935A9308950A930395D4
:102C1E00A8890E94D30BE42308955E2FEC85EA93D6
:102C2E00AF81B885882799270E9447141E2E0895D4
:102C3E000A930395E889EA93EE85EA93E985FA8586
:102C4E003196E987FA873197D1CFBA93AA93A881A3
:102C5E00B9810E946D1708950E947117E0918F043B
:102C6E00F09190040895F8010F5F1F4F049008959E
:102C7E00E0918F04F09190043196E4910895F0E084
:102C8E00EA0FFB1F8F010895EA93E0E0EA93E0E07C
:102C9E00F0E0FA93EA93A9E00C94DF0CAE81AF5FFB
:102CAE00AE83A150E0919304AE1708953A93AA858E
:102CBE000C94F10FA985BA85EA0FFB1FE987FA87F5
:102CCE000895E985FA85EA1BFB0BE987FA870895D3
:102CDE00F0E0AE1BBF0B9D01A989BB270895F0E064
:102CEE00EA0FFB1FAF01E885E178E1380895EA1B92
:102CFE00FB0B0F01DF01EB85FC85AE17BF070895B7
:102D0E00E985FA85E015F10508950A93A22F0C9432
:102D1E00E60E0A93A22FA2500E948A0CAE2FEE81CD
:102D2E00EA170895EB85FC85AE17BF070895E98570
:102D3E00FA85EA17FB0708950A93A42F0E94E60E60
:102D4E00AF81A23008950A93A42FAE5F0E948A0C21
:102D5E00AE2FEE81EA170895EA93A22F0E948A0CF5
:102D6E00AE2FEE81EA170895EA93A42F0E948A0CE3
:102D7E00AE2FEE81EA170895E985EA93E985EA9385
:102D8E000895109639F080ED97E00197F1F7A89528
:102D9E001197C9F708950024AF0DB01D0895F19550
:102DAE00E195F0400895EE230E2EEA2F19F0EE0F66
:102DBE000A94E9F70895EE230E2EEA2F19F0E69500
:102DCE000A94E9F70895EE0FFF1FEE0FFF1FEE0FA7
:102DDE00FF1FEE0FFF1F0895F595E795F595E79503
:102DEE0008956F2F660F660B762F0895FA9FF02DBC
:102DFE00EB9FF00DEA9FE02DF10D089500241124B4
:102E0E0090E1AA0FBB1F001C111C0E1A1F0A18F40A
:102E1E000E0E1F1E01C0A1609A9599F7FD01D001FB
:102E2E0008951CD0EBDF0EF4BADF0895E894B7FFD7
:102E3E0004C0A095B09511966894F7FDB0DFDEDF63
:102E4E00FD010EF4ACDF0895E894F7FF02C0A7DF92
:102E5E006894EA23FB230EF4A2DF0895E894F7FFAB
:102E6E0002C09DDF6894B7FF06C0A095B09511967D
:102E7E0000F8039400FA0895ED91FC9111970895CE
:102E8E000590F491E02D08957A936A93FA93EA935C
:102E9E000895E199FECFFF93FFB7F894AEBBBFBB89
:102EAE00E09AEDB3FFBFFF910895E19B02C0A89594
:102EBE00FCCF9FB7F894AEBBBFBBE09A8DB3E817BB
:102ECE0019F0EDBBE29AE19A9FBF089500240A160D
:102EDE000B0608955A934A933A932A931A930A9398
:102EEE0008955D814C813B812A8119810881089565
:00000001FF
