:0600000025C0FECFFDCF7C
:10000600FCCFFBCFFACFF9CFF8CFF7CFF6CFF5CFAE
:1000160046C0F3CFF2CFF1CFF0CFEFCFEECFEDCF9B
:100026001027E80364000A00010000100001100018
:10003600010000000000000001000200380004007A
:1000460004003A000000F894EE27ECBBF1E0FBBF99
:10005600EBBFE5BF8DE0A2E0BB27ED938A95E9F7FC
:1000660080E094E0A0E6ED930197E9F7EEE3F0E097
:1000760085919591009761F0A591B59105901590A0
:10008600BF01F00105900D920197E1F7FB01F0CF5A
:10009600EFE5EDBFE4E0EEBFC0E6D1E035C0EA93A0
:1000A600FA93EFB7EA93D9D01BB10CB1E12FEC71FB
:1000B60089F4E42D4394F0E0E05AFE4F0083E8E033
:1000C600E41509F444246394E8E0E61519F466247B
:1000D600689420F809911991E991EFBFF991E99196
:1000E60018951A936620F1F3E72D7394F0E0E05A21
:1000F600FE4F1081E8E0E71509F47724F8946A9436
:100106007894E12F19910895EFEFE7BBE0E0E8BBA3
:10011600EFE3E4BBE0E0E5BBE2ECE1BBECE3E2BB32
:10012600E0E0E3BFE2BFEFBDEEBDEDBDECBDE7BD78
:10013600E6BDEBBDEABDE9BDE8BDE2BDE5BDE4BD9A
:10014600E3BDE9BFE5BFEBB9E0E9EAB9E6E8E0BD42
:10015600E0E0E0BDE3E3E9B9E0E8E8B9E0E0E0BF0C
:10016600E6B9EDB9E6BF7894E0B3EC735E2E56942B
:100176005694B7DF1E2FE078E03819F4A12F0FD080
:100186000CC017FD04C0E12FEF705E1609F003C026
:10019600A12F07D002C0A5DFA4DFEBCFFFCF24D06D
:1001A60010C022D029D0FF93EF939BDFAF91BF9170
:1001B60043D022D03196FF93EF9393DFAF91BF9157
:1001C6003BD0E12F22D0AE0FBF1F2AD0E8BBE12FD4
:1001D6001CD021D0EF73E5BBE12F17D01CD0E07CFB
:1001E600E2BB188122960895AA931A9310E7E98133
:1001F6001E2312951F700895E12FA0E0B0E0F0E0F5
:10020600EE0FFF1FEA0FFB1F0895A0E0B0E0F0E03D
:10021600EE0FFF1F0895AE0FBF1F119601D0089570
:10022600E199FECFFF93FFB7F894AEBBBFBBE09A50
:10023600EDB3FFBFFF910895E19B02C0A895FCCFE7
:100246009FB7F894AEBBBFBBE09A8DB3E81719F021
:10025600EDBBE29AE19A9FBF08951A930A93089517
:00000001FF
