:0E0000004FC0FECFFDCFFCCFFBCFFACFF9CF24
:10000E00F8CFF7CFF6CFF5CFF4CFF3CF6EC0F1CF59
:10001E00F0CFEFCFEECFEDCF00000000000020209C
:10002E00202057454C434F4D452120202020005481
:10003E00454D5052415455524520204E4F573A008F
:10004E002020202D2D3E252D352E32663C2D2D00C7
:10005E007A5A2530352E326620435878000001003A
:10006E002D4E414E00494E46000080C02D4E414E51
:10007E000000060004002600110060012C00110093
:10008E0071013D000100A8016C000200AC01780076
:10009E000000F894EE27ECBBF1E0FBBFEBBFE5BF31
:1000AE008DE0A2E0BB27ED938A95E9F780E094E01E
:1000BE00A0E6ED930197E9F7E0E8F0E085919591E0
:1000CE00009761F0A591B59105901590BF01F001D3
:1000DE0005900D920197E1F7FB01F0CFEFE5EDBF33
:1000EE00E4E0EEBFC0E6D1E03EC0EA93FA93EFB78C
:1000FE00EA93992061F09A94E62D6394F0E0E0562D
:10010E00FE4FE081ECB9E8E0E61509F46624E991CA
:10011E00EFBFF991E9911895AA93E8E0E915E9F393
:10012E00F894992011F45D990DC0E72D7394F0E0C9
:10013E00E056FE4FA881A083E8E0E71509F4772486
:10014E00939402C0E881ECB9789480C1AA93E881B7
:10015E00E062E7B98BE18A95F1F7369A349BFECFD0
:10016E00349AE5B173C1E0E0E7BBE8BBE4BBE5BBA5
:10017E00E1BBE2BBE3BFE2BFEFBDEEBDE7BDE6BD57
:10018E00EBBDEABDE9BDE8BDE2BDE5BDE4BDE3BD45
:10019E00E9BFE5BFEBB9E8E4EAB9E6E8E0BDE0E0C7
:1001AE00E0BDE3E3E9B9E0E8E8B9E0E2E7B9E6E8A3
:1001BE00E6B9E0E0E0BFEDB9E6BFA0E120D178946A
:1001CE00ECD06CD4A0E6B1E00AD1ADE76BD4E5D0AB
:1001DE00A4E168D463D4A1E7B1E001D1ACE2B1E00F
:1001EE008AD5A0E0B3DFA2E8B1E05ED4ACD7E0E000
:1001FE00EA93A1E0C5D0E0E9F1E05BD4EEE4F0E0F3
:10020E005BD4A0E9B1E0EBD0E6E8F1E052D4EEE544
:10021E00F0E052D444245524EAE0F0E04E165F0696
:10022E0054F4A6E8B1E0A40DB51DAC9175DFF20152
:10023E0031962F01F1CFADE735D4D3CFFFCF4FD4C9
:10024E0051D4E0E0EA83EFE3EB83B0D7EB85FC8596
:10025E00EF3FAFEFFA0729F44AD4AEE6B0E0FBD396
:10026E0072C0EF3FAFE7FA0729F441D4AFE6B0E032
:10027E00F2D369C0AC85AA2332F43CD446D53FD420
:10028E0043D4EDE2EC93A885A73010F0E6E0E887C2
:10029E00188541D421F043D447D44CD4FACF4FD44F
:1002AE00DAD52DD410E0E0E0F0E060E87FE342D450
:1002BE0046D4B4D660F033D44BD43CD41F5F17323F
:1002CE0028F015D4A3E7B0E0C6D33DC0F1CF10306F
:1002DE0021F41AD4E0E3EC9318C01DD4B1F01FD46E
:1002EE0023D43CD4DF01CB01A6D324D428D451D6B9
:1002FE003FD50E2F09D438D412D4C2D672D5FBD521
:10030E0039D43FD7A1D5FBD3E8CFE885E030B9F09B
:10031E00FBD3EEE2EC93E885E150E887EF5F79F0EE
:10032E0029D416D4ECD3E6D323D50E2FEDD31CD47B
:10033E0021D4A6D656D525D787D5E1D3ECCFAE811D
:10034E00BF81E0E0EC9339D72D960895AA93E8B3D8
:10035E00EF70AE2FE881E07FEA2BE8BB10D4C29A93
:10036E000ED4C2980CD472C0AA93A881EFDFE88194
:10037E00E295E883A881EADF85E88A95F1F766C001
:10038E00AA93E881F0E0E455FE4FE081A981AE0F1B
:10039E00EBDF8980B88022960895A2E0E5DFA3E026
:1003AE0081D3ACE0E1DFA1E0DFDFA3E07BD3E0E0CF
:1003BE00BE2E8E2E0895AA93A881AA3011F08A140B
:1003CE0040F0E0E0EA93B394AB2DDADFA881AA30D7
:1003DE00E9F18394C09AA881C7DFC09837C07FD354
:1003EE001A93A981BA81ED91A983BA831E2FE030A9
:1003FE0019F0A12FE0DFF5CF188123960895AA9367
:10040E00E7B3E06FE7BBBA9AB89AB99AC298C098A8
:10041E00C198A880E881E058E093AE01E881E054ED
:10042E00E093AF01A4E13ED3AED3ADD3ACD3A0E203
:10043E008DDF88EC90E00197F1F7A8E295DFA4E05C
:10044E0093DFA5E891DFA6E08FDFA7DF2196089561
:10045E0046D3ACD69FD312966CD63097F1F09AD382
:10046E009CD38F01309761F00230E0E01E0770F0F0
:10047E00F80131978F01AA81BB811496ED93FC93FD
:10048E0089D312968DD33197AC81A08383D351D665
:10049E00FF2312F07FD384D305C07CD3EFEFFFEFA1
:1004AE00ED93FC938AD62596089519D31BD3E0E8D5
:1004BE00EA83EFE3EB8378D6EE85FF85EF3FAFEF70
:1004CE00FA0739F4E885F985F4D2AAE7B0E0C3D289
:1004DE0084C0EF3FAFE7FA0731F468D3EAD2ABE757
:1004EE00B0E0B9D27AC0AB85A73010F0E6E0EB876A
:1004FE001B8511D319F05DD361D3FBCF64D34ED6D8
:10050E0021F430E056D35AD321C03B8561D309F094
:10051E0008F40AC04ED352D35BD328F063D304D36E
:10052E0066D33F5FF9CF09C053D328F45BD310D302
:10053E005ED33150F9CF3DD341D345D30FD357D3EB
:10054E0047D320F04FD3F0D252D33F5F10E0EB856C
:10055E00E11718F151D3E8D201D3DF01CB016BD2F1
:10056E002DD3EC81FD816E817F813CD312D500D4D9
:10057E000E2F47D3E02FE05DEC93E02F95D23CD3C6
:10058E00BAD430D3FED560D432D3E12F1F5FE03022
:10059E00F1F637D3EEE2EC93DACF3AD33197AA8560
:1005AE00A08330302CF43195A885B985EDE203C0D7
:1005BE00A885B985EBE2EC932BD32AD32ED373D532
:1005CE00E05DDB01EC9324D328D397D5E05DDB010E
:1005DE00EC93A885B985E0E0EC93EDD5609608958F
:1005EE007ED2EF976197DED510E0FE01E85AFF4FFD
:1005FE000190F081E02DE887F987FE01EA5AFF4F5E
:10060E000190F081E02DEE83FF83AE81BF81E0E0AB
:10061E00F0E0ED93FC93DE01A45ABF4FC1D23197A7
:10062E00E4912E2FE03009F4A4C1E12FE03031F433
:10063E00253211F411E001C0F5D29AC1E130B9F4BE
:10064E00253211F4EFD293C112E0E0E0ED8B00E021
:10065E002D3211F401E08CC12B3219F4EBE2ED8B4B
:10066E0087C1203219F4E0E2ED8B82C102C0E23084
:10067E0039F450E013E0203311F4006879C102C060
:10068E00E33091F4203310F02A3308F007C0AAE0CB
:10069E005A9F502DE22FE0535E0F6AC140E02E327A
:1006AE0011F414E065C10FC0E43099F4203310F05A
:1006BE002A3308F008C00062AAE04A9F402DE22FBC
:1006CE00E0534E0F55C12C3619F4026015E050C19F
:1006DE0003C0E53009F04CC1E22FE33639F4A9D25C
:1006EE00AFD2A7D2A481AA93B2D241C1E53411F000
:1006FE00E53609F402C0E636A9F5AFD2B3D21DD560
:10070E00B8D2BCD2AD85AA2332F0AD89AB3241F05E
:10071E00A03261F012C0B4D2F8D2ABD2EDE2ED8BC2
:10072E0007FF04C0ED89EA9392D207C0EE85FF85DC
:10073E003196ABD23197AD89A08305FF46E02636C0
:10074E0039F49ED214D54A93AB89BC8978DD07C0A3
:10075E0097D20DD54A932A93AC89BD89A6DE7DD258
:10076E0097D218C0E33729F489D297D28ED290D27D
:10077E000AC0E037A1F482D290D287D2AE85BF856F
:10078E0081D11E2F08600F77403011F0411708F00D
:10079E0001C0142F40E0E0E0EC8B30E05EC0E436A8
:1007AE0011F0E93611F4046002C0E53791F4EAE085
:1007BE00EC8B01FF07C0E0E0FAEC6AE97BE36FD255
:1007CE001AE01FC0E0E1F7E260E070E068D215E0E9
:1007DE0018C0E83511F4086003C0E83709F0C7C047
:1007EE00E0E1EC8B01FF07C0E0E0F0E060E070E1DB
:1007FE0056D218E006C0E0E0F0E160E070E04FD2C3
:10080E0014E0403011F00F7701C041E001FF05C048
:10081E0035D228D2149691D40AC002FF04C02ED22B
:10082E003CD22ED404C02AD238D266277727EA8744
:10083E00FB876C877D8702FF0FC0AD85AA232AF444
:10084E001FD210D416D2EDE2ED8BED89E03019F007
:10085E001F5F4F5F01C00B7F342F00FD13C01517B4
:10086E0010F4351708F00EC007FF08C002FF04C0D1
:10087E000B7F2D89115001C020E301C020E2D2D19F
:10088E005150EDCF141780F4006102FF05C00CD259
:10089E0009F0515011504150E0E3EA93D8D1503055
:1008AE0009F051504150EECF312FEC89E030A9F4D0
:1008BE00303091F003FF05C0EE85FF852591E5D11F
:1008CE0005C0AE85BF852D91AE87BF87ABD15030A9
:1008DE0009F051503150ECCF41C0F8D1E9D32E2F51
:1008EE002A3030F003FF02C0295C01C0295A01C032
:1008FE00205D04FD1DC0213348F4F1D1A130E0E0AC
:10090E00BE07E0E08E07E0E09E0709F40BC0431738
:10091E0040F4531710F000FF01C00EC020E207FF95
:10092E0007C020E3006102FF03C0BED109F05150A1
:10093E0079D1503009F051503150C8D1EAD399D104
:10094E00EC89CDD1FF2766277727B2D3A8D1E889C6
:10095E00F9896A897B8922D409F0BFCF00FF07C0CD
:10096E00503029F05150E0E2EA9371D1F9CF10E006
:10097E0052CEAE81BF81DDD31CD4EF966F96089513
:10098E00FF92F82E269710D4AFD1309719F4EFEFCF
:10099E00FFEF1DC0DE01169661D38D01A5D1EE834A
:1009AE00FF83E0E0E887E987DE011A9657D3C1D3CB
:1009BE0080D01A930A93EFE2F2E07BD0DE011A9612
:1009CE000FDE9F01AE81BF81E0E0EC93F901F3D31E
:1009DE002A96FF900895D0D37B816A81F981E881B0
:1009EE0077FB770F67FD7160972F9E5781F078F038
:1009FE00983190F4AA27BB27882708948795B79536
:100A0E00A7959A95D1F7EA23FB23682305C0E894AE
:100A1E007727EE27FF2766276F77769508F46068AD
:100A2E0077F9A991B99189919991EA17FB0768070E
:100A3E00790797FB0895A0D390D3CDDF93D311F40C
:100A4E0058D107C0EEF755D1A0E0B0E080E89FE3A3
:100A5E00FBD12496089543D0E991F991A991B991CA
:100A6E00CD0105900D920020E1F7FC01089537D0DD
:100A7E00A991B991EE27FF276D91662311F031965A
:100A8E00FBCF08952CD0AA27BB27E991F9910590A9
:100A9E00002011F01196FBCFFD010895E0E0EA93DE
:100AAE00A0E06ECCB0E027C1FF276627772799D14B
:100ABE000895FA93EA930895FCDFA0918201B09114
:100ACE0083018091840190918501E0E0F0E060E87F
:100ADE0070E45FD24CD384E053DF28960895BA9326
:100AEE00AA9308952497E0E0E883E9830895EE81C0
:100AFE00FF81DFCFE985FA856B857C850895E987CF
:100B0E00FA876B877C870895AE81BF811196AE837D
:100B1E00BF8311970895E12F1150E0300895AA81F7
:100B2E00BB818C819D810895EDECFCEC6CEC7DE33A
:100B3E00E2D10895EA83FB836C837D830895EA8175
:100B4E00FB816C817D81A985BA858B859C850895F5
:100B5E00E0E0F0E060E271E4CED10895A0E0B0E014
:100B6E0080E09FE378D10895E02FE05DEC93E02FD5
:100B7E00F0E00895A985BA858B859C8508958DE052
:100B8E008A95F1F70895A0E3E1DB88EC90E00197F8
:100B9E00F1F70895AA81BB8108951496CAD20895DB
:100BAE00ED91FD913196FE93EE930895E885F985CA
:100BBE000895AC81BD818E819F81CACFEC83FD8368
:100BCE006E837F830895EC85FD856E857F85089500
:100BDE00EC81FD816E817F81AC85BD858E859F8583
:100BEE001DD20895AC85BD858E859F850895EC87B1
:100BFE00FD876E877F870895AC81BD818E819F8131
:100C0E000895A885B9851196A887B9871197089573
:100C1E00CDDF3196E887F98708953197BF01A32F6D
:100C2E00EAE008952A93AF81B885E985FA8509959A
:100C3E000895FE01E65AFF4F0190F081E02D0895D0
:100C4E003497DE01A65ABF4FED93FC930895AF8102
:100C5E00B885E985FA8509950895FE017696EE87A1
:100C6E00FF870895DE01A65ABF4F0D90BC91A02DAF
:100C7E000895EA87FB876C877D870895DADFE0CFDA
:100C8E00EA85FB856C857D850895EE87FF8708953F
:100C9E00AE85BF85ECDE1E2F0895E4DF7ECFE88B98
:100CAE00F98B6A8B7B8B08950B7FED89EA93DE01BE
:100CBE00A95ABF4F0D90BC91A02DFE01E75AFF4FD0
:100CCE000190F081E02D099550300895E889F98959
:100CDE006A897B89AA85BB858C859D850895A8899F
:100CEE00B9898A899B890895DE011C96B7D121D2D4
:100CFE0008952ED20895109639F080ED97E0019761
:100D0E00F1F7A8951197C9F7089530976040704094
:100D1E0009F070580895552342F4503811F4E0FF4D
:100D2E0004C03196691F791F6BF050E8572711F4F4
:100D3E005F93CFC05F3F31F0660F000C57956795FC
:100D4E00752F08955F9300200AF0CFC0C8C050E8F9
:100D5E00192E1522880F991F9527550F879550E844
:100D6E00072E0522660F771F7527550F6795089575
:100D7E00689401C0E8945F93F2DF703818F07F3FFB
:100D8E0008F4A7C056E1571BAAF4519558300EF43B
:100D9E00593030F0EFEFFFEF6FEF7FE777F91AC0C2
:100DAE0077275523B9F0EE0FFF1F661F771F5A9551
:100DBE00D1F710C07727583028F0EF2FF62F672F76
:100DCE005850F9CF552331F076956795F795E795FD
:100DDE005A95D1F700200AF445D15F910895689491
:100DEE0001C0E894309760407040B1F0002426F0C6
:100DFE00772312F4009436D1172E7EE1112032F0B3
:100E0E007A95EE0FFF1F661F111CF9CFEF2FF62FED
:100E1E00612D5F938ADF5F9108954F93AF01FD01BE
:100E2E00DA01AB01BC01CA01402D012C142E4F91E9
:100E3E000895EA0FFB1F681F0895E095F0956095E1
:100E4E00EF5FFF4F6F4F08955F9381DF903871F121
:100E5E0050E8152604C05F937ADF903839F1703868
:100E6E0021F1572F591B2BF112F4D7DFFACF58313E
:100E7E0018F0AA27BB278827583028F0AB2FB82F99
:100E8E0088275850F9CF552329F08695B795A79501
:100E9E005A95D9F7502D512572F0CBDF38F467955E
:100EAE00F795E795739513F420C0B7DF3EDF5F919A
:100EBE000895D8F7FBCFEA1BFB0B680B51F010F42B
:100ECE000094BBDF662392F3EE0FFF1F661F7A9529
:100EDE00CBF7EE27FF27662777275F910895EFEF71
:100EEE00FFEF6FE77FEF5F910895EFEFFFEF6FE793
:100EFE007FE75F9108955F932ADF703851F3903842
:100F0E0041F301240894791F23F41CF300203AF3D3
:100F1E00ECCF0F921F932F933F934F9311272227BE
:100F2E009927689FA0018F9F302D410D591F6B9FF0
:100F3E00300D411D591F8E9F27D0BF9F25D06A9F10
:100F4E0023D0BE9F1DD0AF9F1BD0AE9F110D291F6A
:100F5E00391F491F591FE32FF42F652F522F4F9121
:100F6E003F912F911F910F9066232AF0550FEE1F80
:100F7E00FF1F661F02C073954BF2CDDE5F91089581
:100F8E00100D211D391F02C0200D311D491F591F83
:100F9E0008955F93DCDE703821F411200AF49FCFA0
:100FAE00A4CF903809F495CF01240894970B1BF425
:100FBE00D4F30020F3CF792F1F932F933F934F93AA
:100FCE0011241127222733274427552790E2AE17E5
:100FDE00BF078607410730F0AE1BBF0B860B410BD8
:100FEE00089401C08894551F221F331F111CAA1F7D
:100FFE00BB1F881F441F9A9551F7F901612D4F9120
:10100E003F912F911F91662332F0550FEE1FFF1F58
:10101E00661F7A9543F27FDE5F91089599239AF0C9
:10102E00772342F0971748F029F4AE17BF078607CB
:10103E0020F031F098948894089598940894089527
:10104E001894889408957723C2F7971798F3A9F701
:10105E00EA17FB07680788F399F3ECCF0024AF0D6E
:10106E00B01D0895F09560957095E195FF4F6F4F07
:10107E007F4F0895FE2FFF0FFF0B6F2F7F2F0895C9
:10108E006F2F660F660B762F0895002498E0AA0F37
:10109E00001C0E1A10F40E0E01C0A1609A95B9F73D
:1010AE00EA2FA02D089539D0F0DF0EF4E1950895C2
:1010BE003F934F935F93002411244427552730E22A
:1010CE00AA0FBB1F881F991F001C111C441F551F00
:1010DE000E1A1F0A460B570B28F40E0E1F1E461F24
:1010EE00571F01C0A1603A9559F7FD01BC01D0010F
:1010FE00CA015F914F913F910895E894A7FF02C0F6
:10110E00A1956894E7FDE195C0DFEA2F0EF4E19515
:10111E000895CEDFFD01BC010895E894E7FF02C0FB
:10112E00E1956894A7FF04C0A19500F8039400FA16
:10113E000895ED91FC9111970895ED91FD916D91AA
:10114E007C9113970895ED93FD936D937C93089581
:10115E00E881F9816A817B810895A881B9818A81AC
:10116E009B810895E883F9836A837B8308957A933C
:10117E006A93FA93EA9308959A938A93BA93AA93E9
:10118E000895182E862F612D192E972F712D1B2E37
:10119E00BF2FF12D1A2EAE2FE12D089530976040FE
:1011AE00704008955A934A933A932A931A930A9346
:1011BE0008955D814C813B812A81198108810895B2
:00000001FF
